{
  "contractName": "InitCrowdsale",
  "abi": [
    {
      "constant": true,
      "inputs": [
        {
          "name": "_team_wallet",
          "type": "address"
        },
        {
          "name": "_start_time",
          "type": "uint256"
        },
        {
          "name": "_initial_tier_name",
          "type": "bytes32"
        },
        {
          "name": "_initial_tier_price",
          "type": "uint256"
        },
        {
          "name": "_initial_tier_duration",
          "type": "uint256"
        },
        {
          "name": "_initial_tier_token_sell_cap",
          "type": "uint256"
        },
        {
          "name": "_initial_tier_is_whitelisted",
          "type": "bool"
        },
        {
          "name": "_initial_tier_duration_is_modifiable",
          "type": "bool"
        },
        {
          "name": "_admin",
          "type": "address"
        }
      ],
      "name": "init",
      "outputs": [
        {
          "name": "store_data",
          "type": "bytes32[]"
        }
      ],
      "payable": false,
      "stateMutability": "view",
      "type": "function"
    },
    {
      "constant": true,
      "inputs": [
        {
          "name": "_storage",
          "type": "address"
        },
        {
          "name": "_exec_id",
          "type": "bytes32"
        }
      ],
      "name": "getAdmin",
      "outputs": [
        {
          "name": "admin",
          "type": "address"
        }
      ],
      "payable": false,
      "stateMutability": "view",
      "type": "function"
    },
    {
      "constant": true,
      "inputs": [
        {
          "name": "_storage",
          "type": "address"
        },
        {
          "name": "_exec_id",
          "type": "bytes32"
        }
      ],
      "name": "getCrowdsaleInfo",
      "outputs": [
        {
          "name": "wei_raised",
          "type": "uint256"
        },
        {
          "name": "team_wallet",
          "type": "address"
        },
        {
          "name": "minimum_contribution",
          "type": "uint256"
        },
        {
          "name": "is_initialized",
          "type": "bool"
        },
        {
          "name": "is_finalized",
          "type": "bool"
        }
      ],
      "payable": false,
      "stateMutability": "view",
      "type": "function"
    },
    {
      "constant": true,
      "inputs": [
        {
          "name": "_storage",
          "type": "address"
        },
        {
          "name": "_exec_id",
          "type": "bytes32"
        }
      ],
      "name": "isCrowdsaleFull",
      "outputs": [
        {
          "name": "is_crowdsale_full",
          "type": "bool"
        },
        {
          "name": "max_sellable",
          "type": "uint256"
        }
      ],
      "payable": false,
      "stateMutability": "view",
      "type": "function"
    },
    {
      "constant": true,
      "inputs": [
        {
          "name": "_storage",
          "type": "address"
        },
        {
          "name": "_exec_id",
          "type": "bytes32"
        }
      ],
      "name": "getCrowdsaleUniqueBuyers",
      "outputs": [
        {
          "name": "num_unique",
          "type": "uint256"
        }
      ],
      "payable": false,
      "stateMutability": "view",
      "type": "function"
    },
    {
      "constant": true,
      "inputs": [
        {
          "name": "_storage",
          "type": "address"
        },
        {
          "name": "_exec_id",
          "type": "bytes32"
        }
      ],
      "name": "getCrowdsaleStartAndEndTimes",
      "outputs": [
        {
          "name": "start_time",
          "type": "uint256"
        },
        {
          "name": "end_time",
          "type": "uint256"
        }
      ],
      "payable": false,
      "stateMutability": "view",
      "type": "function"
    },
    {
      "constant": true,
      "inputs": [
        {
          "name": "_storage",
          "type": "address"
        },
        {
          "name": "_exec_id",
          "type": "bytes32"
        }
      ],
      "name": "getCurrentTierInfo",
      "outputs": [
        {
          "name": "tier_name",
          "type": "bytes32"
        },
        {
          "name": "tier_index",
          "type": "uint256"
        },
        {
          "name": "tier_ends_at",
          "type": "uint256"
        },
        {
          "name": "tier_tokens_remaining",
          "type": "uint256"
        },
        {
          "name": "tier_price",
          "type": "uint256"
        },
        {
          "name": "duration_is_modifiable",
          "type": "bool"
        },
        {
          "name": "whitelist_enabled",
          "type": "bool"
        }
      ],
      "payable": false,
      "stateMutability": "view",
      "type": "function"
    },
    {
      "constant": true,
      "inputs": [
        {
          "name": "_storage",
          "type": "address"
        },
        {
          "name": "_exec_id",
          "type": "bytes32"
        },
        {
          "name": "_index",
          "type": "uint256"
        }
      ],
      "name": "getCrowdsaleTier",
      "outputs": [
        {
          "name": "tier_name",
          "type": "bytes32"
        },
        {
          "name": "tier_sell_cap",
          "type": "uint256"
        },
        {
          "name": "tier_price",
          "type": "uint256"
        },
        {
          "name": "tier_duration",
          "type": "uint256"
        },
        {
          "name": "duration_is_modifiable",
          "type": "bool"
        },
        {
          "name": "whitelist_enabled",
          "type": "bool"
        }
      ],
      "payable": false,
      "stateMutability": "view",
      "type": "function"
    },
    {
      "constant": true,
      "inputs": [
        {
          "name": "_storage",
          "type": "address"
        },
        {
          "name": "_exec_id",
          "type": "bytes32"
        }
      ],
      "name": "getCrowdsaleMaxRaise",
      "outputs": [
        {
          "name": "wei_raise_cap",
          "type": "uint256"
        },
        {
          "name": "total_sell_cap",
          "type": "uint256"
        }
      ],
      "payable": false,
      "stateMutability": "view",
      "type": "function"
    },
    {
      "constant": true,
      "inputs": [
        {
          "name": "_storage",
          "type": "address"
        },
        {
          "name": "_exec_id",
          "type": "bytes32"
        }
      ],
      "name": "getCrowdsaleTierList",
      "outputs": [
        {
          "name": "crowdsale_tiers",
          "type": "bytes32[]"
        }
      ],
      "payable": false,
      "stateMutability": "view",
      "type": "function"
    },
    {
      "constant": true,
      "inputs": [
        {
          "name": "_storage",
          "type": "address"
        },
        {
          "name": "_exec_id",
          "type": "bytes32"
        },
        {
          "name": "_index",
          "type": "uint256"
        }
      ],
      "name": "getTierStartAndEndDates",
      "outputs": [
        {
          "name": "tier_start",
          "type": "uint256"
        },
        {
          "name": "tier_end",
          "type": "uint256"
        }
      ],
      "payable": false,
      "stateMutability": "view",
      "type": "function"
    },
    {
      "constant": true,
      "inputs": [
        {
          "name": "_storage",
          "type": "address"
        },
        {
          "name": "_exec_id",
          "type": "bytes32"
        }
      ],
      "name": "getTokensSold",
      "outputs": [
        {
          "name": "tokens_sold",
          "type": "uint256"
        }
      ],
      "payable": false,
      "stateMutability": "view",
      "type": "function"
    },
    {
      "constant": true,
      "inputs": [
        {
          "name": "_storage",
          "type": "address"
        },
        {
          "name": "_exec_id",
          "type": "bytes32"
        },
        {
          "name": "_tier_index",
          "type": "uint256"
        },
        {
          "name": "_buyer",
          "type": "address"
        }
      ],
      "name": "getWhitelistStatus",
      "outputs": [
        {
          "name": "minimum_contribution",
          "type": "uint256"
        },
        {
          "name": "max_spend_remaining",
          "type": "uint256"
        }
      ],
      "payable": false,
      "stateMutability": "view",
      "type": "function"
    },
    {
      "constant": true,
      "inputs": [
        {
          "name": "_storage",
          "type": "address"
        },
        {
          "name": "_exec_id",
          "type": "bytes32"
        },
        {
          "name": "_tier_index",
          "type": "uint256"
        }
      ],
      "name": "getTierWhitelist",
      "outputs": [
        {
          "name": "num_whitelisted",
          "type": "uint256"
        },
        {
          "name": "whitelist",
          "type": "address[]"
        }
      ],
      "payable": false,
      "stateMutability": "view",
      "type": "function"
    },
    {
      "constant": true,
      "inputs": [
        {
          "name": "_storage",
          "type": "address"
        },
        {
          "name": "_exec_id",
          "type": "bytes32"
        },
        {
          "name": "_owner",
          "type": "address"
        }
      ],
      "name": "balanceOf",
      "outputs": [
        {
          "name": "owner_balance",
          "type": "uint256"
        }
      ],
      "payable": false,
      "stateMutability": "view",
      "type": "function"
    },
    {
      "constant": true,
      "inputs": [
        {
          "name": "_storage",
          "type": "address"
        },
        {
          "name": "_exec_id",
          "type": "bytes32"
        },
        {
          "name": "_owner",
          "type": "address"
        },
        {
          "name": "_spender",
          "type": "address"
        }
      ],
      "name": "allowance",
      "outputs": [
        {
          "name": "allowed",
          "type": "uint256"
        }
      ],
      "payable": false,
      "stateMutability": "view",
      "type": "function"
    },
    {
      "constant": true,
      "inputs": [
        {
          "name": "_storage",
          "type": "address"
        },
        {
          "name": "_exec_id",
          "type": "bytes32"
        }
      ],
      "name": "decimals",
      "outputs": [
        {
          "name": "token_decimals",
          "type": "uint256"
        }
      ],
      "payable": false,
      "stateMutability": "view",
      "type": "function"
    },
    {
      "constant": true,
      "inputs": [
        {
          "name": "_storage",
          "type": "address"
        },
        {
          "name": "_exec_id",
          "type": "bytes32"
        }
      ],
      "name": "totalSupply",
      "outputs": [
        {
          "name": "total_supply",
          "type": "uint256"
        }
      ],
      "payable": false,
      "stateMutability": "view",
      "type": "function"
    },
    {
      "constant": true,
      "inputs": [
        {
          "name": "_storage",
          "type": "address"
        },
        {
          "name": "_exec_id",
          "type": "bytes32"
        }
      ],
      "name": "name",
      "outputs": [
        {
          "name": "token_name",
          "type": "bytes32"
        }
      ],
      "payable": false,
      "stateMutability": "view",
      "type": "function"
    },
    {
      "constant": true,
      "inputs": [
        {
          "name": "_storage",
          "type": "address"
        },
        {
          "name": "_exec_id",
          "type": "bytes32"
        }
      ],
      "name": "symbol",
      "outputs": [
        {
          "name": "token_symbol",
          "type": "bytes32"
        }
      ],
      "payable": false,
      "stateMutability": "view",
      "type": "function"
    },
    {
      "constant": true,
      "inputs": [
        {
          "name": "_storage",
          "type": "address"
        },
        {
          "name": "_exec_id",
          "type": "bytes32"
        }
      ],
      "name": "getTokenInfo",
      "outputs": [
        {
          "name": "token_name",
          "type": "bytes32"
        },
        {
          "name": "token_symbol",
          "type": "bytes32"
        },
        {
          "name": "token_decimals",
          "type": "uint256"
        },
        {
          "name": "total_supply",
          "type": "uint256"
        }
      ],
      "payable": false,
      "stateMutability": "view",
      "type": "function"
    },
    {
      "constant": true,
      "inputs": [
        {
          "name": "_storage",
          "type": "address"
        },
        {
          "name": "_exec_id",
          "type": "bytes32"
        },
        {
          "name": "_agent",
          "type": "address"
        }
      ],
      "name": "getTransferAgentStatus",
      "outputs": [
        {
          "name": "is_transfer_agent",
          "type": "bool"
        }
      ],
      "payable": false,
      "stateMutability": "view",
      "type": "function"
    },
    {
      "constant": true,
      "inputs": [
        {
          "name": "_storage",
          "type": "address"
        },
        {
          "name": "_exec_id",
          "type": "bytes32"
        }
      ],
      "name": "getReservedTokenDestinationList",
      "outputs": [
        {
          "name": "num_destinations",
          "type": "uint256"
        },
        {
          "name": "reserved_destinations",
          "type": "address[]"
        }
      ],
      "payable": false,
      "stateMutability": "view",
      "type": "function"
    },
    {
      "constant": true,
      "inputs": [
        {
          "name": "_storage",
          "type": "address"
        },
        {
          "name": "_exec_id",
          "type": "bytes32"
        },
        {
          "name": "_destination",
          "type": "address"
        }
      ],
      "name": "getReservedDestinationInfo",
      "outputs": [
        {
          "name": "destination_list_index",
          "type": "uint256"
        },
        {
          "name": "num_tokens",
          "type": "uint256"
        },
        {
          "name": "num_percent",
          "type": "uint256"
        },
        {
          "name": "percent_decimals",
          "type": "uint256"
        }
      ],
      "payable": false,
      "stateMutability": "view",
      "type": "function"
    }
  ],
  "bytecode": "0x613f8c610030600b82828239805160001a6073146000811461002057610022565bfe5b5030600052607381538281f3007300000000000000000000000000000000000000003014608060405260043610610155576000357c0100000000000000000000000000000000000000000000000000000000900463ffffffff1680630832b9251461015a5780630c51171d146101f2578063137b87211461024a57806315ddf344146102f457806316e7c80d1461037d5780633936dbe4146103e65780634357b3de1461043e5780634444e3cd146104d357806352ad41161461052b5780636c2d5d261461058a57806375e42744146105ea5780638cde43dc14610662578063915cfeac146106c157806395de00a21461073d578063a0113f18146107ca578063a15e39191461082d578063b20cedc314610885578063c4fa9c6b14610909578063cf3e172b146109a9578063d0ca198214610a26578063db7b87ff14610ace578063e0e4034914610bc7578063e758d44514610c27578063f5e493aa14610cb9575b600080fd5b6101dc600480360381019080803573ffffffffffffffffffffffffffffffffffffffff1690602001909291908035600019169060200190929190803573ffffffffffffffffffffffffffffffffffffffff169060200190929190803573ffffffffffffffffffffffffffffffffffffffff169060200190929190505050610d52565b6040518082815260200191505060405180910390f35b610234600480360381019080803573ffffffffffffffffffffffffffffffffffffffff1690602001909291908035600019169060200190929190505050610f0c565b6040518082815260200191505060405180910390f35b610296600480360381019080803573ffffffffffffffffffffffffffffffffffffffff169060200190929190803560001916906020019092919080359060200190929190505050610fca565b6040518083815260200180602001828103825283818151815260200191508051906020019060200280838360005b838110156102df5780820151818401526020810190506102c4565b50505050905001935050505060405180910390f35b610360600480360381019080803573ffffffffffffffffffffffffffffffffffffffff169060200190929190803560001916906020019092919080359060200190929190803573ffffffffffffffffffffffffffffffffffffffff1690602001909291905050506111fb565b604051808381526020018281526020019250505060405180910390f35b6103c9600480360381019080803573ffffffffffffffffffffffffffffffffffffffff1690602001909291908035600019169060200190929190803590602001909291905050506113fa565b604051808381526020018281526020019250505060405180910390f35b610428600480360381019080803573ffffffffffffffffffffffffffffffffffffffff1690602001909291908035600019169060200190929190505050611674565b6040518082815260200191505060405180910390f35b61048a600480360381019080803573ffffffffffffffffffffffffffffffffffffffff169060200190929190803560001916906020019092919080359060200190929190505050611732565b6040518087600019166000191681526020018681526020018581526020018481526020018315151515815260200182151515158152602001965050505050505060405180910390f35b610515600480360381019080803573ffffffffffffffffffffffffffffffffffffffff16906020019092919080356000191690602001909291905050506119a7565b6040518082815260200191505060405180910390f35b61056d600480360381019080803573ffffffffffffffffffffffffffffffffffffffff1690602001909291908035600019169060200190929190505050611a65565b604051808381526020018281526020019250505060405180910390f35b6105cc600480360381019080803573ffffffffffffffffffffffffffffffffffffffff1690602001909291908035600019169060200190929190505050611be8565b60405180826000191660001916815260200191505060405180910390f35b61064c600480360381019080803573ffffffffffffffffffffffffffffffffffffffff1690602001909291908035600019169060200190929190803573ffffffffffffffffffffffffffffffffffffffff169060200190929190505050611ca2565b6040518082815260200191505060405180910390f35b6106a4600480360381019080803573ffffffffffffffffffffffffffffffffffffffff1690602001909291908035600019169060200190929190505050611dde565b604051808381526020018281526020019250505060405180910390f35b610723600480360381019080803573ffffffffffffffffffffffffffffffffffffffff1690602001909291908035600019169060200190929190803573ffffffffffffffffffffffffffffffffffffffff1690602001909291905050506121dd565b604051808215151515815260200191505060405180910390f35b61079f600480360381019080803573ffffffffffffffffffffffffffffffffffffffff1690602001909291908035600019169060200190929190803573ffffffffffffffffffffffffffffffffffffffff16906020019092919050505061232d565b6040518085815260200184815260200183815260200182815260200194505050505060405180910390f35b61080c600480360381019080803573ffffffffffffffffffffffffffffffffffffffff1690602001909291908035600019169060200190929190505050612595565b60405180831515151581526020018281526020019250505060405180910390f35b61086f600480360381019080803573ffffffffffffffffffffffffffffffffffffffff169060200190929190803560001916906020019092919050505061288b565b6040518082815260200191505060405180910390f35b6108c7600480360381019080803573ffffffffffffffffffffffffffffffffffffffff1690602001909291908035600019169060200190929190505050612949565b604051808273ffffffffffffffffffffffffffffffffffffffff1673ffffffffffffffffffffffffffffffffffffffff16815260200191505060405180910390f35b61094b600480360381019080803573ffffffffffffffffffffffffffffffffffffffff1690602001909291908035600019169060200190929190505050612a07565b6040518083815260200180602001828103825283818151815260200191508051906020019060200280838360005b83811015610994578082015181840152602081019050610979565b50505050905001935050505060405180910390f35b6109eb600480360381019080803573ffffffffffffffffffffffffffffffffffffffff1690602001909291908035600019169060200190929190505050612c04565b604051808560001916600019168152602001846000191660001916815260200183815260200182815260200194505050505060405180910390f35b610a68600480360381019080803573ffffffffffffffffffffffffffffffffffffffff1690602001909291908035600019169060200190929190505050612e50565b604051808681526020018573ffffffffffffffffffffffffffffffffffffffff1673ffffffffffffffffffffffffffffffffffffffff16815260200184815260200183151515158152602001821515151581526020019550505050505060405180910390f35b610b70600480360381019080803573ffffffffffffffffffffffffffffffffffffffff169060200190929190803590602001909291908035600019169060200190929190803590602001909291908035906020019092919080359060200190929190803515159060200190929190803515159060200190929190803573ffffffffffffffffffffffffffffffffffffffff169060200190929190505050613135565b6040518080602001828103825283818151815260200191508051906020019060200280838360005b83811015610bb3578082015181840152602081019050610b98565b505050509050019250505060405180910390f35b610c09600480360381019080803573ffffffffffffffffffffffffffffffffffffffff16906020019092919080356000191690602001909291905050506136e2565b60405180826000191660001916815260200191505060405180910390f35b610c69600480360381019080803573ffffffffffffffffffffffffffffffffffffffff169060200190929190803560001916906020019092919050505061379c565b604051808860001916600019168152602001878152602001868152602001858152602001848152602001831515151581526020018215151515815260200197505050505050505060405180910390f35b610cfb600480360381019080803573ffffffffffffffffffffffffffffffffffffffff1690602001909291908035600019169060200190929190505050613ba2565b6040518080602001828103825283818151815260200191508051906020019060200280838360005b83811015610d3e578082015181840152602081019050610d23565b505050509050019250505060405180910390f35b600080610d9360405180807f7265616428627974657333322c6279746573333229000000000000000000000081525060150190506040518091039020613d80565b9050610da88582613d9d90919063ffffffff16565b610eea83604051808273ffffffffffffffffffffffffffffffffffffffff1673ffffffffffffffffffffffffffffffffffffffff166c01000000000000000000000000028152601401915050604051809103902085604051808273ffffffffffffffffffffffffffffffffffffffff1673ffffffffffffffffffffffffffffffffffffffff166c01000000000000000000000000028152601401915050604051809103902060405180807f746f6b656e5f616c6c6f77616e63657300000000000000000000000000000000815250601001905060405180910390206040518083600019166000191681526020018260001916600019168152602001925050506040518091039020604051808360001916600019168152602001826000191660001916815260200192505050604051809103902082613d9d90919063ffffffff16565b610efd8682613dc890919063ffffffff16565b60019004915050949350505050565b600080610f4d60405180807f7265616428627974657333322c6279746573333229000000000000000000000081525060150190506040518091039020613d80565b9050610f628382613d9d90919063ffffffff16565b610faa60405180807f63726f776473616c655f746f6b656e735f736f6c6400000000000000000000008152506015019050604051809103902082613d9d90919063ffffffff16565b610fbd8482613dc890919063ffffffff16565b6001900491505092915050565b6000606060008061100f60405180807f7265616428627974657333322c6279746573333229000000000000000000000081525060150190506040518091039020613d80565b91506110248683613d9d90919063ffffffff16565b6110918560405180807f63726f776473616c655f70757263686173655f77686974656c69737400000000815250601c019050604051809103902060405180838152602001826000191660001916815260200192505050604051809103902083613d9d90919063ffffffff16565b6110a48783613dc890919063ffffffff16565b6001900493506110f260405180807f726561644d756c746928627974657333322c627974657333325b5d2900000000815250601c019050604051809103902083613e3390919063ffffffff16565b6111058683613d9d90919063ffffffff16565b61111c604060010283613d9d90919063ffffffff16565b6111328460010283613d9d90919063ffffffff16565b600090505b838110156111c8576111bb8560405180807f63726f776473616c655f70757263686173655f77686974656c69737400000000815250601c019050604051809103902060405180838152602001826000191660001916815260200192505050604051809103902060019004826020026020010160010283613d9d90919063ffffffff16565b8080600101915050611137565b6111e36111de8884613e4190919063ffffffff16565b613ec4565b92508383511415156111f157fe5b5050935093915050565b600080600080606061124160405180807f726561644d756c746928627974657333322c627974657333325b5d2900000000815250601c0190506040518091039020613d80565b92506112568884613d9d90919063ffffffff16565b61126d604060010284613d9d90919063ffffffff16565b611284600260010284613d9d90919063ffffffff16565b85604051808273ffffffffffffffffffffffffffffffffffffffff1673ffffffffffffffffffffffffffffffffffffffff166c0100000000000000000000000002815260140191505060405180910390208760405180807f63726f776473616c655f70757263686173655f77686974656c69737400000000815250601c0190506040518091039020604051808381526020018260001916600019168152602001925050506040518091039020604051808360001916600019168152602001826000191660001916815260200192505050604051809103902091506113718284613d9d90919063ffffffff16565b61138e826001900460200160010284613d9d90919063ffffffff16565b6113a96113a48a85613e4190919063ffffffff16565b613ece565b9050600281511415156113b857fe5b8060008151811015156113c757fe5b9060200190602002015194508060018151811015156113e257fe5b90602001906020020151935050505094509492505050565b6000806000806000606061144260405180807f726561644d756c746928627974657333322c627974657333325b5d2900000000815250601c0190506040518091039020613d80565b93506114578885613d9d90919063ffffffff16565b61146e604060010285613d9d90919063ffffffff16565b6114878760030160010285613d9d90919063ffffffff16565b6114cf60405180807f63726f776473616c655f746965725f6c697374000000000000000000000000008152506013019050604051809103902085613d9d90919063ffffffff16565b61151760405180807f63726f776473616c655f73746172745f74696d650000000000000000000000008152506014019050604051809103902085613d9d90919063ffffffff16565b60405180807f63726f776473616c655f746965725f6c6973740000000000000000000000000081525060130190506040518091039020600190046080016001029250600091505b86821115156115945761157a8385613d9d90919063ffffffff16565b826001900460c0016001029250818060010192505061155e565b6115af6115aa8a86613e4190919063ffffffff16565b613ece565b90508660030181511415156115c057fe5b868160008151811015156115d057fe5b906020019060200201511115156115f35760008081915080905095509550611668565b80600181518110151561160257fe5b906020019060200201519550600091505b8682101561164757808260020181518110151561162c57fe5b90602001906020020151860195508180600101925050611613565b80600182510381518110151561165957fe5b90602001906020020151860194505b50505050935093915050565b6000806116b560405180807f7265616428627974657333322c6279746573333229000000000000000000000081525060150190506040518091039020613d80565b90506116ca8382613d9d90919063ffffffff16565b61171260405180807f746f6b656e5f646563696d616c73000000000000000000000000000000000000815250600e019050604051809103902082613d9d90919063ffffffff16565b6117258482613dc890919063ffffffff16565b6001900491505092915050565b600080600080600080600080606061177e60405180807f726561644d756c746928627974657333322c627974657333325b5d2900000000815250601c0190506040518091039020613d80565b92506117938b84613d9d90919063ffffffff16565b6117aa604060010284613d9d90919063ffffffff16565b6117c1600660010284613d9d90919063ffffffff16565b60405180807f63726f776473616c655f746965725f6c6973740000000000000000000000000081525060130190506040518091039020600190048a60c00260200101915061181b8260010284613d9d90919063ffffffff16565b6118348260200160010284613d9d90919063ffffffff16565b61184d8260400160010284613d9d90919063ffffffff16565b6118668260600160010284613d9d90919063ffffffff16565b61187f8260800160010284613d9d90919063ffffffff16565b6118988260a00160010284613d9d90919063ffffffff16565b6118ab8c84613e4190919063ffffffff16565b9050600681511415156118ba57fe5b8060008151811015156118c957fe5b9060200190602002015198508060018151811015156118e457fe5b9060200190602002015160019004975080600281518110151561190357fe5b9060200190602002015160019004965080600381518110151561192257fe5b90602001906020020151600190049550600060010281600481518110151561194657fe5b906020019060200201516000191614611960576001611963565b60005b9450600060010281600581518110151561197957fe5b906020019060200201516000191614611993576001611996565b60005b935050505093975093979195509350565b6000806119e860405180807f7265616428627974657333322c6279746573333229000000000000000000000081525060150190506040518091039020613d80565b90506119fd8382613d9d90919063ffffffff16565b611a4560405180807f746f6b656e5f746f74616c5f737570706c7900000000000000000000000000008152506012019050604051809103902082613d9d90919063ffffffff16565b611a588482613dc890919063ffffffff16565b6001900491505092915050565b60008060006060611aaa60405180807f726561644d756c746928627974657333322c627974657333325b5d2900000000815250601c0190506040518091039020613d80565b9150611abf8583613d9d90919063ffffffff16565b611ad6604060010283613d9d90919063ffffffff16565b611aed600260010283613d9d90919063ffffffff16565b611b3560405180807f63726f776473616c655f73746172745f74696d650000000000000000000000008152506014019050604051809103902083613d9d90919063ffffffff16565b611b7d60405180807f63726f776473616c655f746f74616c5f6475726174696f6e00000000000000008152506018019050604051809103902083613d9d90919063ffffffff16565b611b98611b938784613e4190919063ffffffff16565b613ece565b905060028151141515611ba757fe5b806000815181101515611bb657fe5b906020019060200201519350806001815181101515611bd157fe5b906020019060200201518401925050509250929050565b600080611c2960405180807f7265616428627974657333322c6279746573333229000000000000000000000081525060150190506040518091039020613d80565b9050611c3e8382613d9d90919063ffffffff16565b611c8660405180807f746f6b656e5f73796d626f6c0000000000000000000000000000000000000000815250600c019050604051809103902082613d9d90919063ffffffff16565b611c998482613dc890919063ffffffff16565b91505092915050565b600080611ce360405180807f7265616428627974657333322c6279746573333229000000000000000000000081525060150190506040518091039020613d80565b9050611cf88482613d9d90919063ffffffff16565b611dbd83604051808273ffffffffffffffffffffffffffffffffffffffff1673ffffffffffffffffffffffffffffffffffffffff166c01000000000000000000000000028152601401915050604051809103902060405180807f746f6b656e5f62616c616e636573000000000000000000000000000000000000815250600e0190506040518091039020604051808360001916600019168152602001826000191660001916815260200192505050604051809103902082613d9d90919063ffffffff16565b611dd08582613dc890919063ffffffff16565b600190049150509392505050565b600080600060606000806000611e2860405180807f726561644d756c746928627974657333322c627974657333325b5d2900000000815250601c0190506040518091039020613d80565b9450611e3d8886613d9d90919063ffffffff16565b611e54604060010286613d9d90919063ffffffff16565b611e6b600360010286613d9d90919063ffffffff16565b611eb360405180807f63726f776473616c655f746965725f6c697374000000000000000000000000008152506013019050604051809103902086613d9d90919063ffffffff16565b611efb60405180807f746f6b656e5f646563696d616c73000000000000000000000000000000000000815250600e019050604051809103902086613d9d90919063ffffffff16565b611f4360405180807f746f6b656e5f6e616d6500000000000000000000000000000000000000000000815250600a019050604051809103902086613d9d90919063ffffffff16565b611f5e611f598a87613e4190919063ffffffff16565b613ece565b935060038451141515611f6d57fe5b836000815181101515611f7c57fe5b906020019060200201519250836001815181101515611f9757fe5b9060200190602002015191506000846002815181101515611fb457fe5b906020019060200201511415611fd657600080819150809050965096506121d1565b61201e60405180807f726561644d756c746928627974657333322c627974657333325b5d2900000000815250601c019050604051809103902086613e3390919063ffffffff16565b6120318886613d9d90919063ffffffff16565b612048604060010286613d9d90919063ffffffff16565b6120618360020260010286613d9d90919063ffffffff16565b600090505b82811015612129576120c560405180807f63726f776473616c655f746965725f6c6973740000000000000000000000000081525060130190506040518091039020600190048260c0026040010160010286613d9d90919063ffffffff16565b61211c60405180807f63726f776473616c655f746965725f6c6973740000000000000000000000000081525060130190506040518091039020600190048260c0026060010160010286613d9d90919063ffffffff16565b8080600101915050612066565b61214461213f8a87613e4190919063ffffffff16565b613ece565b935082600202845114151561215557fe5b600090505b83518110156121d057838181518110151561217157fe5b906020019060200201518601955081600a0a846001830181518110151561219457fe5b9060200190602002015185838151811015156121ac57fe5b90602001906020020151028115156121c057fe5b048701965060028101905061215a565b5b50505050509250929050565b60008061221e60405180807f7265616428627974657333322c6279746573333229000000000000000000000081525060150190506040518091039020613d80565b90506122338482613d9d90919063ffffffff16565b6122f883604051808273ffffffffffffffffffffffffffffffffffffffff1673ffffffffffffffffffffffffffffffffffffffff166c01000000000000000000000000028152601401915050604051809103902060405180807f746f6b656e5f7472616e736665725f6167656e7473000000000000000000000081525060150190506040518091039020604051808360001916600019168152602001826000191660001916815260200192505050604051809103902082613d9d90919063ffffffff16565b60006001026123108683613dc890919063ffffffff16565b6000191614612320576001612323565b60005b9150509392505050565b600080600080600080606061237660405180807f726561644d756c746928627974657333322c627974657333325b5d2900000000815250601c0190506040518091039020613d80565b925061238b8984613d9d90919063ffffffff16565b6123a2604060010284613d9d90919063ffffffff16565b6123b9600460010284613d9d90919063ffffffff16565b87604051808273ffffffffffffffffffffffffffffffffffffffff1673ffffffffffffffffffffffffffffffffffffffff166c01000000000000000000000000028152601401915050604051809103902060405180807f746f6b656e5f72657365727665645f616464725f696e666f00000000000000008152506018019050604051809103902060405180836000191660001916815260200182600019166000191681526020019250505060405180910390206001900491506124888260010284613d9d90919063ffffffff16565b6124a18260200160010284613d9d90919063ffffffff16565b6124ba8260400160010284613d9d90919063ffffffff16565b6124d38260600160010284613d9d90919063ffffffff16565b6124e68a84613e4190919063ffffffff16565b9050600481511415156124f557fe5b80600081518110151561250457fe5b90602001906020020151600190049650600087141561252257612589565b86806001900397505080600181518110151561253a57fe5b9060200190602002015160019004955080600281518110151561255957fe5b9060200190602002015160019004945080600381518110151561257857fe5b906020019060200201516001900493505b50505093509350935093565b6000806000606060008060006125df60405180807f726561644d756c746928627974657333322c627974657333325b5d2900000000815250601c0190506040518091039020613d80565b94506125f48886613d9d90919063ffffffff16565b61260b604060010286613d9d90919063ffffffff16565b612622600260010286613d9d90919063ffffffff16565b61266a60405180807f63726f776473616c655f746965725f6c697374000000000000000000000000008152506013019050604051809103902086613d9d90919063ffffffff16565b6126b260405180807f63726f776473616c655f746f6b656e735f736f6c6400000000000000000000008152506015019050604051809103902086613d9d90919063ffffffff16565b6126cd6126c88a87613e4190919063ffffffff16565b613ece565b9350600284511415156126dc57fe5b8360008151811015156126eb57fe5b90602001906020020151925083600181518110151561270657fe5b90602001906020020151915061275a60405180807f726561644d756c746928627974657333322c627974657333325b5d2900000000815250601c019050604051809103902086613e3390919063ffffffff16565b61276d8886613d9d90919063ffffffff16565b612784604060010286613d9d90919063ffffffff16565b61279a8360010286613d9d90919063ffffffff16565b600090505b8281101561280b576127fe60405180807f63726f776473616c655f746965725f6c6973740000000000000000000000000081525060130190506040518091039020600190048260c0026040010160010286613d9d90919063ffffffff16565b808060010191505061279f565b6128266128218a87613e4190919063ffffffff16565b613ece565b935082845114151561283457fe5b600090505b835181101561286b57838181518110151561285057fe5b90602001906020020151860195508080600101915050612839565b8582101561287a57600061287d565b60015b965050505050509250929050565b6000806128cc60405180807f7265616428627974657333322c6279746573333229000000000000000000000081525060150190506040518091039020613d80565b90506128e18382613d9d90919063ffffffff16565b61292960405180807f63726f776473616c655f636f6e7472696275746f7273000000000000000000008152506016019050604051809103902082613d9d90919063ffffffff16565b61293c8482613dc890919063ffffffff16565b6001900491505092915050565b60008061298a60405180807f7265616428627974657333322c6279746573333229000000000000000000000081525060150190506040518091039020613d80565b905061299f8382613d9d90919063ffffffff16565b6129e760405180807f61646d696e0000000000000000000000000000000000000000000000000000008152506005019050604051809103902082613d9d90919063ffffffff16565b6129fa8482613dc890919063ffffffff16565b6001900491505092915050565b60006060600080612a4c60405180807f7265616428627974657333322c6279746573333229000000000000000000000081525060150190506040518091039020613d80565b9150612a618583613d9d90919063ffffffff16565b612aa960405180807f746f6b656e5f72657365727665645f646573745f6c69737400000000000000008152506018019050604051809103902083613d9d90919063ffffffff16565b612abc8683613dc890919063ffffffff16565b6001900493506000841415612ada5760008381915093509350612bfb565b612b2260405180807f726561644d756c746928627974657333322c627974657333325b5d2900000000815250601c019050604051809103902083613e3390919063ffffffff16565b612b358583613d9d90919063ffffffff16565b612b4c604060010283613d9d90919063ffffffff16565b612b628460010283613d9d90919063ffffffff16565b600190505b8381111515612bd157612bc460405180807f746f6b656e5f72657365727665645f646573745f6c69737400000000000000008152506018019050604051809103902060019004826020020160010283613d9d90919063ffffffff16565b8080600101915050612b67565b612bec612be78784613e4190919063ffffffff16565b613ec4565b9250838351141515612bfa57fe5b5b50509250929050565b60008060008060006060612c4c60405180807f726561644d756c746928627974657333322c627974657333325b5d2900000000815250601c0190506040518091039020613d80565b9150612c618783613d9d90919063ffffffff16565b612c78604060010283613d9d90919063ffffffff16565b612c8f600460010283613d9d90919063ffffffff16565b612cd760405180807f746f6b656e5f6e616d6500000000000000000000000000000000000000000000815250600a019050604051809103902083613d9d90919063ffffffff16565b612d1f60405180807f746f6b656e5f73796d626f6c0000000000000000000000000000000000000000815250600c019050604051809103902083613d9d90919063ffffffff16565b612d6760405180807f746f6b656e5f646563696d616c73000000000000000000000000000000000000815250600e019050604051809103902083613d9d90919063ffffffff16565b612daf60405180807f746f6b656e5f746f74616c5f737570706c7900000000000000000000000000008152506012019050604051809103902083613d9d90919063ffffffff16565b612dc28883613e4190919063ffffffff16565b905060048151141515612dd157fe5b806000815181101515612de057fe5b906020019060200201519550806001815181101515612dfb57fe5b906020019060200201519450806002815181101515612e1657fe5b90602001906020020151600190049350806003815181101515612e3557fe5b90602001906020020151600190049250505092959194509250565b6000806000806000806060612e9960405180807f726561644d756c746928627974657333322c627974657333325b5d2900000000815250601c0190506040518091039020613d80565b9150612eae8883613d9d90919063ffffffff16565b612ec5604060010283613d9d90919063ffffffff16565b612edc600560010283613d9d90919063ffffffff16565b612f2460405180807f63726f776473616c655f7765695f7261697365640000000000000000000000008152506014019050604051809103902083613d9d90919063ffffffff16565b612f6c60405180807f63726f776473616c655f77616c6c6574000000000000000000000000000000008152506010019050604051809103902083613d9d90919063ffffffff16565b612fb460405180807f63726f776473616c655f6d696e5f6361700000000000000000000000000000008152506011019050604051809103902083613d9d90919063ffffffff16565b612ffc60405180807f63726f776473616c655f69735f696e69740000000000000000000000000000008152506011019050604051809103902083613d9d90919063ffffffff16565b61304460405180807f63726f776473616c655f69735f66696e616c697a6564000000000000000000008152506016019050604051809103902083613d9d90919063ffffffff16565b6130578983613e4190919063ffffffff16565b90506005815114151561306657fe5b80600081518110151561307557fe5b9060200190602002015160019004965080600181518110151561309457fe5b906020019060200201516001900495508060028151811015156130b357fe5b9060200190602002015160019004945060006001028160038151811015156130d757fe5b9060200190602002015160001916146130f15760016130f4565b60005b9350600060010281600481518110151561310a57fe5b906020019060200201516000191614613124576001613127565b60005b925050509295509295909350565b606060008073ffffffffffffffffffffffffffffffffffffffff168b73ffffffffffffffffffffffffffffffffffffffff1614806131735750600088145b8061317d5750428a105b8061318a575089878b0111155b806131955750600086145b806131cc5750600073ffffffffffffffffffffffffffffffffffffffff168373ffffffffffffffffffffffffffffffffffffffff16145b156131ff576131fe7f496d70726f706572496e697469616c697a6174696f6e0000000000000000000060001916613ed8565b5b61320a600080613ee2565b905061326f60405180807f61646d696e000000000000000000000000000000000000000000000000000000815250600501905060405180910390208473ffffffffffffffffffffffffffffffffffffffff1660010283613f069092919063ffffffff16565b6132d260405180807f63726f776473616c655f77616c6c657400000000000000000000000000000000815250601001905060405180910390208c73ffffffffffffffffffffffffffffffffffffffff1660010283613f069092919063ffffffff16565b61331f60405180807f63726f776473616c655f746f74616c5f6475726174696f6e0000000000000000815250601801905060405180910390208860010283613f069092919063ffffffff16565b61336c60405180807f63726f776473616c655f73746172745f74696d65000000000000000000000000815250601401905060405180910390208b60010283613f069092919063ffffffff16565b6133b960405180807f63726f776473616c655f746965725f6c69737400000000000000000000000000815250601301905060405180910390206001800283613f069092919063ffffffff16565b61340d60405180807f63726f776473616c655f746965725f6c6973740000000000000000000000000081525060130190506040518091039020600190046020016001028a83613f069092919063ffffffff16565b61346460405180807f63726f776473616c655f746965725f6c6973740000000000000000000000000081525060130190506040518091039020600190046040016001028760010283613f069092919063ffffffff16565b6134bb60405180807f63726f776473616c655f746965725f6c6973740000000000000000000000000081525060130190506040518091039020600190046060016001028960010283613f069092919063ffffffff16565b61351260405180807f63726f776473616c655f746965725f6c6973740000000000000000000000000081525060130190506040518091039020600190046080016001028860010283613f069092919063ffffffff16565b61357960405180807f63726f776473616c655f746965725f6c69737400000000000000000000000000815250601301905060405180910390206001900460a00160010285613564576000600102613569565b600180025b83613f069092919063ffffffff16565b6135e060405180807f63726f776473616c655f746965725f6c69737400000000000000000000000000815250601301905060405180910390206001900460c001600102866135cb5760006001026135d0565b600180025b83613f069092919063ffffffff16565b61362d60405180807f63726f776473616c655f63757272656e745f7469657200000000000000000000815250601601905060405180910390206001800283613f069092919063ffffffff16565b61367c60405180807f63726f776473616c655f746965725f656e64735f617400000000000000000000815250601601905060405180910390208b890160010283613f069092919063ffffffff16565b6136c960405180807f63726f776473616c655f746965725f746f6b656e735f72656d61696e696e6700815250601f01905060405180910390208760010283613f069092919063ffffffff16565b6136d281613f3d565b9150509998505050505050505050565b60008061372360405180807f7265616428627974657333322c6279746573333229000000000000000000000081525060150190506040518091039020613d80565b90506137388382613d9d90919063ffffffff16565b61378060405180807f746f6b656e5f6e616d6500000000000000000000000000000000000000000000815250600a019050604051809103902082613d9d90919063ffffffff16565b6137938482613dc890919063ffffffff16565b91505092915050565b600080600080600080600080606060006137ea60405180807f726561644d756c746928627974657333322c627974657333325b5d2900000000815250601c0190506040518091039020613d80565b92506137ff8b84613d9d90919063ffffffff16565b613816604060010284613d9d90919063ffffffff16565b61382d600360010284613d9d90919063ffffffff16565b61387560405180807f63726f776473616c655f746965725f656e64735f6174000000000000000000008152506016019050604051809103902084613d9d90919063ffffffff16565b6138bd60405180807f63726f776473616c655f63757272656e745f74696572000000000000000000008152506016019050604051809103902084613d9d90919063ffffffff16565b61390560405180807f63726f776473616c655f746965725f746f6b656e735f72656d61696e696e6700815250601f019050604051809103902084613d9d90919063ffffffff16565b61392061391b8d85613e4190919063ffffffff16565b613ece565b91506003825114151561392f57fe5b600082600181518110151561394057fe5b90602001906020020151141561395557613b93565b81600081518110151561396457fe5b906020019060200201519750600182600181518110151561398157fe5b9060200190602002015103985081600281518110151561399d57fe5b9060200190602002015196506139f160405180807f726561644d756c746928627974657333322c627974657333325b5d2900000000815250601c019050604051809103902084613e3390919063ffffffff16565b613a048b84613d9d90919063ffffffff16565b613a1b604060010284613d9d90919063ffffffff16565b613a32600460010284613d9d90919063ffffffff16565b60405180807f63726f776473616c655f746965725f6c6973740000000000000000000000000081525060130190506040518091039020600190048960c002602001019050613a8c8160010284613d9d90919063ffffffff16565b613aa58160400160010284613d9d90919063ffffffff16565b613abe8160800160010284613d9d90919063ffffffff16565b613ad78160a00160010284613d9d90919063ffffffff16565b613af2613aed8d85613e4190919063ffffffff16565b613ece565b915060048251141515613b0157fe5b816000815181101515613b1057fe5b906020019060200201516001029950816001815181101515613b2e57fe5b9060200190602002015195506000826002815181101515613b4b57fe5b9060200190602002015114613b61576001613b64565b60005b94506000826003815181101515613b7757fe5b9060200190602002015114613b8d576001613b90565b60005b93505b50505092959891949750929550565b60606000806000613be760405180807f7265616428627974657333322c6279746573333229000000000000000000000081525060150190506040518091039020613d80565b9250613bfc8584613d9d90919063ffffffff16565b613c4460405180807f63726f776473616c655f746965725f6c697374000000000000000000000000008152506013019050604051809103902084613d9d90919063ffffffff16565b613c578684613dc890919063ffffffff16565b600190049150613ca560405180807f726561644d756c746928627974657333322c627974657333325b5d2900000000815250601c019050604051809103902084613e3390919063ffffffff16565b613cb88584613d9d90919063ffffffff16565b613ccf604060010284613d9d90919063ffffffff16565b613ce58260010284613d9d90919063ffffffff16565b600090505b81811015613d5657613d4960405180807f63726f776473616c655f746965725f6c6973740000000000000000000000000081525060130190506040518091039020600190048260c0026020010160010284613d9d90919063ffffffff16565b8080600101915050613cea565b613d698684613e4190919063ffffffff16565b9350818451141515613d7757fe5b50505092915050565b600060405190506004815281816020015280604001604052919050565b815160200181818401528083528083602001016040511015613dc3578083602c01016040525b505050565b60008060448451141515613ddb57600080fd5b602084855186602001865afa90506000811115613df757835191505b801515613e2c57613e2b7f53746f72616765526561644661696c656400000000000000000000000000000060001916613ed8565b5b5092915050565b600482528082602001525050565b60606000608484511015613e5457600080fd5b600080855186602001865afa90506000811115613e8857835160203d031115613e7c57600080fd5b60203d036020853e8391505b801515613ebd57613ebc7f53746f72616765526561644661696c656400000000000000000000000000000060001916613ed8565b5b5092915050565b6060819050919050565b6060819050919050565b8060005260206000fd5b60006040519050604081528281602001528181604001528060600160405292915050565b8251602001828185015280602001905081818501528084528084602001016040511015613f37578084604001016040525b50505050565b6060600060208351061115613f5157600080fd5b602082510482528190509190505600a165627a7a723058209d5da0cfdb6edba03e7954eb7a1aa150f32fd0f7ab81776eb19aac314b04d7b30029",
  "source": "pragma solidity ^0.4.23;\n\nimport \"../lib/ReadFromBuffers.sol\";\nimport \"../lib/ArrayUtils.sol\";\n\nlibrary InitCrowdsale { \n\n  using ReadFromBuffers for uint;\n  using ArrayUtils for bytes32[];\n  using Exceptions for bytes32;\n\n  /// CROWDSALE STORAGE ///\n\n  // Storage location of crowdsale admin address\n  bytes32 internal constant ADMIN = keccak256(\"admin\");\n\n  // Whether the crowdsale and token are initialized, and the sale is ready to run\n  bytes32 internal constant CROWDSALE_IS_INIT = keccak256(\"crowdsale_is_init\");\n\n  // Whether or not the crowdsale is post-purchase\n  bytes32 internal constant CROWDSALE_IS_FINALIZED = keccak256(\"crowdsale_is_finalized\");\n\n  // Storage location of the crowdsale's start time\n  bytes32 internal constant CROWDSALE_START_TIME = keccak256(\"crowdsale_start_time\");\n\n  // Storage location of the amount of time the crowdsale will take, accounting for all tiers\n  bytes32 internal constant CROWDSALE_TOTAL_DURATION = keccak256(\"crowdsale_total_duration\");\n\n  // Storage location of the amount of tokens sold in the crowdsale so far. Does not include reserved tokens\n  bytes32 internal constant CROWDSALE_TOKENS_SOLD = keccak256(\"crowdsale_tokens_sold\");\n\n  // Storage location of the minimum amount of tokens allowed to be purchased\n  bytes32 internal constant CROWDSALE_MINIMUM_CONTRIBUTION = keccak256(\"crowdsale_min_cap\");\n\n  // Maps addresses to a boolean indicating whether or not this address has contributed\n  // At its base location, stores the amount of unique contributors so far in this crowdsale\n  bytes32 internal constant CROWDSALE_UNIQUE_CONTRIBUTORS = keccak256(\"crowdsale_contributors\");\n\n  // Storage location of a list of the tiers the crowdsale will have\n  /* Each tier mimics the following struct:\n  struct CrowdsaleTier {\n    bytes32 _tier_name;                 // The name of the crowdsale tier\n    uint _tier_token_sell_cap;          // The maximum number of tokens that will be sold during this tier\n    uint _tier_purchase_price;          // The price of a token in wei for this tier\n    uint _duration;                     // The amount of time this tier will be active for\n    bool _tier_duration_is_modifiable;  // Whether the crowdsale admin is allowed to modify the duration of a tier before it goes live\n    bool _tier_is_whitelist_enabled     // Whether this tier of the crowdsale requires users to be on a purchase whitelist\n  }\n  */\n  bytes32 internal constant CROWDSALE_TIERS = keccak256(\"crowdsale_tier_list\");\n\n  // Storage location of the CROWDSALE_TIERS index (-1) of the current tier. If zero, no tier is currently active\n  bytes32 internal constant CROWDSALE_CURRENT_TIER = keccak256(\"crowdsale_current_tier\");\n\n  // Storage location of the end time of the current tier. Purchase attempts beyond this time will update the current tier (if another is available)\n  bytes32 internal constant CURRENT_TIER_ENDS_AT = keccak256(\"crowdsale_tier_ends_at\");\n\n  // Storage location of the total number of tokens remaining for purchase in the current tier\n  bytes32 internal constant CURRENT_TIER_TOKENS_REMAINING = keccak256(\"crowdsale_tier_tokens_remaining\");\n\n  // Storage location of team funds wallet\n  bytes32 internal constant WALLET = keccak256(\"crowdsale_wallet\");\n\n  // Storage location of amount of wei raised during the crowdsale, total\n  bytes32 internal constant WEI_RAISED = keccak256(\"crowdsale_wei_raised\");\n\n  // Storage seed for crowdsale whitelist mappings - maps each tier's index to a mapping of addresses to whtielist information\n  /* Each whitelist entry mimics this struct:\n  struct WhitelistListing {\n    uint minimum_contribution;\n    uint max_contribution;\n  }\n  */\n  bytes32 internal constant SALE_WHITELIST = keccak256(\"crowdsale_purchase_whitelist\");\n\n  /// TOKEN STORAGE ///\n\n  // Storage location for token name\n  bytes32 internal constant TOKEN_NAME = keccak256(\"token_name\");\n\n  // Storage location for token ticker symbol\n  bytes32 internal constant TOKEN_SYMBOL = keccak256(\"token_symbol\");\n\n  // Storage location for token decimals\n  bytes32 internal constant TOKEN_DECIMALS = keccak256(\"token_decimals\");\n\n  // Storage location for token totalSupply\n  bytes32 internal constant TOKEN_TOTAL_SUPPLY = keccak256(\"token_total_supply\");\n\n  // Storage seed for user balances mapping\n  bytes32 internal constant TOKEN_BALANCES = keccak256(\"token_balances\");\n\n  // Storage seed for user allowances mapping\n  bytes32 internal constant TOKEN_ALLOWANCES = keccak256(\"token_allowances\");\n\n  // Storage seed for token 'transfer agent' status for any address\n  // Transfer agents can transfer tokens, even if the crowdsale has not yet been finalized\n  bytes32 internal constant TOKEN_TRANSFER_AGENTS = keccak256(\"token_transfer_agents\");\n\n  // Whether or not the token is unlocked for transfers\n  bytes32 internal constant TOKENS_ARE_UNLOCKED = keccak256(\"tokens_are_unlocked\");\n\n  /// Storage location for an array of addresses with some form of reserved tokens\n  bytes32 internal constant TOKEN_RESERVED_DESTINATIONS = keccak256(\"token_reserved_dest_list\");\n\n  // Storage seed for reserved token information for a given address\n  // Maps an address for which tokens are reserved to a struct:\n  // ReservedInfo { uint destination_list_index; uint num_tokens; uint num_percent; uint percent_decimals; }\n  // destination_list_index is the address's index in TOKEN_RESERVED_DESTINATIONS, plus 1. 0 means the address is not in the list\n  bytes32 internal constant TOKEN_RESERVED_ADDR_INFO = keccak256(\"token_reserved_addr_info\");\n\n  /// FUNCTION SELECTORS ///\n\n  // Function selector for storage \"read\"\n  // read(bytes32 _exec_id, bytes32 _location) view returns (bytes32 data_read);\n  bytes4 internal constant RD_SING = bytes4(keccak256(\"read(bytes32,bytes32)\"));\n\n  // Function selector for storage 'readMulti'\n  // readMulti(bytes32 exec_id, bytes32[] locations)\n  bytes4 internal constant RD_MULTI = bytes4(keccak256(\"readMulti(bytes32,bytes32[])\"));\n\n  /*\n  Creates a crowdsale with initial conditions. The admin should now initialize the crowdsale's token, as well\n  as any additional tiers of the crowdsale that will exist, followed by finalizing the initialization of the crowdsale.\n\n  @param _team_wallet: The team funds wallet, where crowdsale purchases are forwarded\n  @param _start_time: The start time of the initial tier of the crowdsale\n  @param _initial_tier_name: The name of the initial tier of the crowdsale\n  @param _initial_tier_price: The price of each token purchased in wei, for the initial crowdsale tier\n  @param _initial_tier_duration: The duration of the initial tier of the crowdsale\n  @param _initial_tier_token_sell_cap: The maximum number of tokens that can be sold during the initial tier\n  @param _initial_tier_is_whitelisted: Whether the initial tier of the crowdsale requires an address be whitelisted for successful purchase\n  @param _initial_tier_duration_is_modifiable: Whether the initial tier of the crowdsale has a modifiable duration\n  @param _admin: A privileged address which is able to complete the crowdsale initialization process\n  @return store_data: A formatted storage request\n  */\n  function init(\n    address _team_wallet,\n    uint _start_time,\n    bytes32 _initial_tier_name,\n    uint _initial_tier_price,\n    uint _initial_tier_duration,\n    uint _initial_tier_token_sell_cap,\n    bool _initial_tier_is_whitelisted,\n    bool _initial_tier_duration_is_modifiable,\n    address _admin\n  ) public view returns (bytes32[] memory store_data) {\n    // Ensure valid input\n    if (\n      _team_wallet == address(0)\n      || _initial_tier_price == 0\n      || _start_time < now\n      || _start_time + _initial_tier_duration <= _start_time\n      || _initial_tier_token_sell_cap == 0\n      || _admin == address(0)\n    ) bytes32(\"ImproperInitialization\").trigger();\n\n    // Create storage data return buffer in memory\n    uint ptr = ReadFromBuffers.stBuff(0, 0);\n    // Push admin address, team wallet, crowdsale overall duration, and overall crowdsale start time\n    ptr.stPush(ADMIN, bytes32(_admin));\n    ptr.stPush(WALLET, bytes32(_team_wallet));\n    ptr.stPush(CROWDSALE_TOTAL_DURATION, bytes32(_initial_tier_duration));\n    ptr.stPush(CROWDSALE_START_TIME, bytes32(_start_time));\n    // Push initial crowdsale tiers list length (1), and initial tier information to list\n    ptr.stPush(CROWDSALE_TIERS, bytes32(1));\n    // Tier name\n    ptr.stPush(bytes32(32 + uint(CROWDSALE_TIERS)), _initial_tier_name);\n    // Tier token sell cap\n    ptr.stPush(bytes32(64 + uint(CROWDSALE_TIERS)), bytes32(_initial_tier_token_sell_cap));\n    // Tier purchase price\n    ptr.stPush(bytes32(96 + uint(CROWDSALE_TIERS)), bytes32(_initial_tier_price));\n    // Tier active duration\n    ptr.stPush(bytes32(128 + uint(CROWDSALE_TIERS)), bytes32(_initial_tier_duration));\n    // Whether this tier's duration is modifiable prior to its start time\n    ptr.stPush(bytes32(160 + uint(CROWDSALE_TIERS)), _initial_tier_duration_is_modifiable ? bytes32(1) : bytes32(0));\n    // Whether this tier requires an address be whitelisted to complete token purchase\n    ptr.stPush(bytes32(192 + uint(CROWDSALE_TIERS)), _initial_tier_is_whitelisted ? bytes32(1) : bytes32(0));\n\n    // Push current crowdsale tier to buffer (initial tier is '1' - index is 0, but offset by 1 in storage)\n    ptr.stPush(CROWDSALE_CURRENT_TIER, bytes32(1));\n    // Push end time of initial tier to buffer\n    ptr.stPush(CURRENT_TIER_ENDS_AT, bytes32(_initial_tier_duration + _start_time));\n    // Push number of tokens remaining to be sold in the initial tier to the buffer\n    ptr.stPush(CURRENT_TIER_TOKENS_REMAINING, bytes32(_initial_tier_token_sell_cap));\n\n    // Get bytes32[] storage request array from buffer\n    store_data = ptr.getBuffer();\n  }\n\n  /*\n  Returns the address of the admin of the crowdsale\n\n  @param _storage: The application's storage address\n  @param _exec_id: The execution id to pull the admin address from\n  @return admin: The address of the admin of the crowdsale\n  */\n  function getAdmin(address _storage, bytes32 _exec_id) public view returns (address admin) {\n    // Create 'read' calldata buffer in memory\n    uint ptr = ReadFromBuffers.cdBuff(RD_SING);\n    // Push exec id and admin address storage location to buffer\n    ptr.cdPush(_exec_id);\n    ptr.cdPush(ADMIN);\n\n    // Read from storage and get return value\n    admin = address(ptr.readSingleFrom(_storage));\n  }\n\n  /// CROWDSALE GETTERS ///\n\n  /*\n  Returns sale information on a crowdsale\n\n  @param _storage: The address where application storage is located\n  @param _exec_id: The application execution id under which storage for this instance is located\n  @return wei_raised: The amount of wei raised in the crowdsale so far\n  @return team_wallet: The address to which funds are forwarded during this crowdsale\n  @return minimum_contribution: The minimum amount of tokens that must be purchased\n  @return is_initialized: Whether or not the crowdsale has been completely initialized by the admin\n  @return is_finalized: Whether or not the crowdsale has been completely finalized by the admin\n  */\n  function getCrowdsaleInfo(address _storage, bytes32 _exec_id) public view\n  returns (uint wei_raised, address team_wallet, uint minimum_contribution, bool is_initialized, bool is_finalized) {\n    // Create 'readMulti' calldata buffer in memory\n    uint ptr = ReadFromBuffers.cdBuff(RD_MULTI);\n    // Push exec id, data read offset, and read size to buffer\n    ptr.cdPush(_exec_id);\n    ptr.cdPush(0x40);\n    ptr.cdPush(bytes32(5));\n    // Push wei raised, team wallet, and minimum contribution amount storage locations to calldata buffer\n    ptr.cdPush(WEI_RAISED);\n    ptr.cdPush(WALLET);\n    ptr.cdPush(CROWDSALE_MINIMUM_CONTRIBUTION);\n    // Push crowdsale initialization and finalization status storage locations to buffer\n    ptr.cdPush(CROWDSALE_IS_INIT);\n    ptr.cdPush(CROWDSALE_IS_FINALIZED);\n    // Read from storage, and store return in buffer\n    bytes32[] memory read_values = ptr.readMultiFrom(_storage);\n    // Ensure correct return length\n    assert(read_values.length == 5);\n\n    // Get returned data -\n    wei_raised = uint(read_values[0]);\n    team_wallet = address(read_values[1]);\n    minimum_contribution = uint(read_values[2]);\n    is_initialized = (read_values[3] == 0 ? false : true);\n    is_finalized = (read_values[4] == 0 ? false : true);\n  }\n\n  /*\n  Returns true if all tiers have been completely sold out\n\n  @param _storage: The address where application storage is located\n  @param _exec_id: The application execution id under which storage for this instance is located\n  @return is_crowdsale_full: Whether or not the total number of tokens to sell in the crowdsale has been reached\n  @return max_sellable: The total number of tokens that can be sold in the crowdsale\n  */\n  function isCrowdsaleFull(address _storage, bytes32 _exec_id) public view returns (bool is_crowdsale_full, uint max_sellable) {\n    // Create 'readMulti' calldata buffer in memory\n    uint ptr = ReadFromBuffers.cdBuff(RD_MULTI);\n    // Push exec id, data read offset, and read size to buffer\n    ptr.cdPush(_exec_id);\n    ptr.cdPush(0x40);\n    ptr.cdPush(bytes32(2));\n    // Push crowdsale tier list length and total tokens sold storage locations to buffer\n    ptr.cdPush(CROWDSALE_TIERS);\n    ptr.cdPush(CROWDSALE_TOKENS_SOLD);\n    // Read from storage\n    uint[] memory read_values = ptr.readMultiFrom(_storage).toUintArr();\n    // Ensure correct return length\n    assert(read_values.length == 2);\n\n    // Get number of tiers and tokens sold\n    uint num_tiers = read_values[0];\n    uint tokens_sold = read_values[1];\n\n    // Overwrite previous buffer and create new calldata buffer\n    ptr.cdOverwrite(RD_MULTI);\n    // Push exec id, read offset, and read size to buffer\n    ptr.cdPush(_exec_id);\n    ptr.cdPush(0x40);\n    ptr.cdPush(bytes32(num_tiers));\n    // Loop through tier cap locations, and add each to the calldata buffer\n    for (uint i = 0; i < num_tiers; i++)\n      ptr.cdPush(bytes32(64 + (192 * i) + uint(CROWDSALE_TIERS)));\n\n    // Read from storage\n    read_values = ptr.readMultiFrom(_storage).toUintArr();\n    // Ensure correct return length\n    assert(read_values.length == num_tiers);\n\n    // Loop through returned values, and get the sum of all tier token sell caps\n    for (i = 0; i < read_values.length; i++)\n      max_sellable += read_values[i];\n\n    // Get return value\n    is_crowdsale_full = (tokens_sold >= max_sellable ? true : false);\n  }\n\n  /*\n  Returns the number of unique contributors to a crowdsale\n\n  @param _storage: The address where application storage is located\n  @param _exec_id: The application execution id under which storage for this instance is located\n  @return num_unique: The number of unique contributors in a crowdsale so far\n  */\n  function getCrowdsaleUniqueBuyers(address _storage, bytes32 _exec_id) public view returns (uint num_unique) {\n    // Create 'read' calldata buffer in memory\n    uint ptr = ReadFromBuffers.cdBuff(RD_SING);\n    // Push exec id and unique contributor storage location to buffer\n    ptr.cdPush(_exec_id);\n    ptr.cdPush(CROWDSALE_UNIQUE_CONTRIBUTORS);\n    // Read from storage and return\n    num_unique = uint(ptr.readSingleFrom(_storage));\n  }\n\n  /*\n  Returns the start and end time of the crowdsale\n\n  @param _storage: The address where application storage is located\n  @param _exec_id: The application execution id under which storage for this instance is located\n  @return start_time: The start time of the first tier of a crowdsale\n  @return end_time: The time at which the crowdsale ends\n  */\n  function getCrowdsaleStartAndEndTimes(address _storage, bytes32 _exec_id) public view returns (uint start_time, uint end_time) {\n    // Create 'readMulti' calldata buffer in memory\n    uint ptr = ReadFromBuffers.cdBuff(RD_MULTI);\n    // Push exec id, data read offset, read size, start time, and total duration locations to buffer\n    ptr.cdPush(_exec_id);\n    ptr.cdPush(0x40);\n    ptr.cdPush(bytes32(2));\n    ptr.cdPush(CROWDSALE_START_TIME);\n    ptr.cdPush(CROWDSALE_TOTAL_DURATION);\n    // Read from storage\n    uint[] memory read_values = ptr.readMultiFrom(_storage).toUintArr();\n    // Ensure correct return length\n    assert(read_values.length == 2);\n\n    // Get return values\n    start_time = read_values[0];\n    end_time = start_time + read_values[1];\n  }\n\n  /*\n  Returns information on the current crowdsale tier\n\n  @param _storage: The address where application storage is located\n  @param _exec_id: The application execution id under which storage for this instance is located\n  @return tier_name: The name of the current tier\n  @return tier_index: The current tier's index in the CROWDSALE_TIERS list\n  @return tier_ends_at: The time at which purcahses for the current tier are forcibly locked\n  @return tier_tokens_remaining: The amount of tokens remaining to be purchased in the current tier\n  @return tier_price: The price of each token purchased this tier, in wei\n  @return duration_is_modifiable: Whether the crowdsale admin can update the duration of this tier before it starts\n  @return whitelist_enabled: Whether an address must be whitelisted to participate in this tier\n  */\n  function getCurrentTierInfo(address _storage, bytes32 _exec_id) public view\n  returns (bytes32 tier_name, uint tier_index, uint tier_ends_at, uint tier_tokens_remaining, uint tier_price, bool duration_is_modifiable, bool whitelist_enabled) {\n    // Create 'readMulti' calldata buffer in memory\n    uint ptr = ReadFromBuffers.cdBuff(RD_MULTI);\n    // Push exec id, data read offset, and read size to calldata buffer\n    ptr.cdPush(_exec_id);\n    ptr.cdPush(0x40);\n    ptr.cdPush(bytes32(3));\n    // Push current tier expiration time, current tier index, and current tier tokens remaining storage locations to calldata buffer\n    ptr.cdPush(CURRENT_TIER_ENDS_AT);\n    ptr.cdPush(CROWDSALE_CURRENT_TIER);\n    ptr.cdPush(CURRENT_TIER_TOKENS_REMAINING);\n    // Read from storage and store return in buffer\n    uint[] memory read_values = ptr.readMultiFrom(_storage).toUintArr();\n    // Ensure correct return length\n    assert(read_values.length == 3);\n\n    // If the returned index was 0, current tier does not exist: return now\n    if (read_values[1] == 0)\n      return;\n\n    // Get returned values -\n    tier_ends_at = read_values[0];\n    // Indices are stored as 1 + (actual index), to avoid conflicts with a default 0 value\n    tier_index = read_values[1] - 1;\n    tier_tokens_remaining = read_values[2];\n\n    // Overwrite previous buffer, and create new 'readMulti' calldata buffer\n    ptr.cdOverwrite(RD_MULTI);\n    // Push exec id, data read offset, and read size to buffer\n    ptr.cdPush(_exec_id);\n    ptr.cdPush(0x40);\n    ptr.cdPush(bytes32(4));\n    // Push tier name, tier token price, modifiable status, and tier whitelist status storage locations to buffer\n    uint name_storage_offset = 32 + (192 * tier_index) + uint(CROWDSALE_TIERS);\n    ptr.cdPush(bytes32(name_storage_offset)); // Tier name\n    ptr.cdPush(bytes32(64 + name_storage_offset)); // Tier purchase price\n    ptr.cdPush(bytes32(128 + name_storage_offset)); // Tier modifiability status\n    ptr.cdPush(bytes32(160 + name_storage_offset)); // Tier whitelist status\n    // Read from storage and get return values\n    read_values = ptr.readMultiFrom(_storage).toUintArr();\n    // Ensure correct return length\n    assert(read_values.length == 4);\n\n    tier_name = bytes32(read_values[0]);\n    tier_price = read_values[1];\n    duration_is_modifiable = (read_values[2] == 0 ? false : true);\n    whitelist_enabled = (read_values[3] == 0 ? false : true);\n  }\n\n  /*\n  Returns information on a given tier\n\n  @param _storage: The address where application storage is located\n  @param _exec_id: The application execution id under which storage for this instance is located\n  @param _index: The index of the tier in the crowdsale tier list. Input index should be like a normal array index (lowest index: 0)\n  @return tier_name: The name of the returned tier\n  @return tier_sell_cap: The amount of tokens designated to be sold during this tier\n  @return tier_price: The price of each token in wei for this tier\n  @return tier_duration: The duration of the given tier\n  @return duration_is_modifiable: Whether the crowdsale admin can change the duration of this tier prior to its start time\n  @return whitelist_enabled: Whether an address must be whitelisted to participate in this tier\n  */\n  function getCrowdsaleTier(address _storage, bytes32 _exec_id, uint _index) public view\n  returns (bytes32 tier_name, uint tier_sell_cap, uint tier_price, uint tier_duration, bool duration_is_modifiable, bool whitelist_enabled) {\n    // Create 'readMulti' calldata buffer in memory\n    uint ptr = ReadFromBuffers.cdBuff(RD_MULTI);\n    // Push exec id, data read offset, and read size to calldata buffer\n    ptr.cdPush(_exec_id);\n    ptr.cdPush(0x40);\n    ptr.cdPush(bytes32(6));\n    // Get tier offset storage location\n    uint tier_info_location = 32 + (192 * _index) + uint(CROWDSALE_TIERS);\n    // Push tier name, sell cap, duration, and modifiable status storage locations to buffer\n    ptr.cdPush(bytes32(tier_info_location)); // Name\n    ptr.cdPush(bytes32(32 + tier_info_location)); // Token sell cap\n    ptr.cdPush(bytes32(64 + tier_info_location)); // Tier purchase price\n    ptr.cdPush(bytes32(96 + tier_info_location)); // Tier duration\n    ptr.cdPush(bytes32(128 + tier_info_location)); // Modifiability status\n    ptr.cdPush(bytes32(160 + tier_info_location)); // Whitelist enabled status\n    // Read from storage and store return in buffer\n    bytes32[] memory read_values = ptr.readMultiFrom(_storage);\n    // Ensure correct return length\n    assert(read_values.length == 6);\n\n    // Get returned values -\n    tier_name = read_values[0];\n    tier_sell_cap = uint(read_values[1]);\n    tier_price = uint(read_values[2]);\n    tier_duration = uint(read_values[3]);\n    duration_is_modifiable = (read_values[4] == 0 ? false : true);\n    whitelist_enabled = (read_values[5] == 0 ? false : true);\n  }\n\n  /*\n  Returns the maximum amount of wei to raise, as well as the total amount of tokens that can be sold\n\n  @param _storage: The storage address of the crowdsale application\n  @param _exec_id: The execution id of the application\n  @return wei_raise_cap: The maximum amount of wei to raise\n  @return total_sell_cap: The maximum amount of tokens to sell\n  */\n  function getCrowdsaleMaxRaise(address _storage, bytes32 _exec_id) public view returns (uint wei_raise_cap, uint total_sell_cap) {\n    // Create 'readMulti' calldata buffer in memory\n    uint ptr = ReadFromBuffers.cdBuff(RD_MULTI);\n    // Push exec id, data read offset, and read size to buffer\n    ptr.cdPush(_exec_id);\n    ptr.cdPush(0x40);\n    ptr.cdPush(bytes32(3));\n    // Push crowdsale tier list length, token decimals, and token name storage locations to buffer\n    ptr.cdPush(CROWDSALE_TIERS);\n    ptr.cdPush(TOKEN_DECIMALS);\n    ptr.cdPush(TOKEN_NAME);\n    // Read from storage\n    uint[] memory read_values = ptr.readMultiFrom(_storage).toUintArr();\n    // Ensure correct return length\n    assert(read_values.length == 3);\n\n    // Get number of crowdsale tiers\n    uint num_tiers = read_values[0];\n    // Get number of token decimals\n    uint num_decimals = read_values[1];\n\n    // If the token has not been set, return\n    if (read_values[2] == 0)\n      return (0, 0);\n\n    // Overwrite previous buffer - push exec id, data read offset, and read size to buffer\n    ptr.cdOverwrite(RD_MULTI);\n    ptr.cdPush(_exec_id);\n    ptr.cdPush(0x40);\n    ptr.cdPush(bytes32(2 * num_tiers));\n    // Loop through tiers and get sell cap and purchase price for each tier\n    for (uint i = 0; i < num_tiers; i++) {\n      ptr.cdPush(bytes32(64 + (192 * i) + uint(CROWDSALE_TIERS))); // token sell cap\n      ptr.cdPush(bytes32(96 + (192 * i) + uint(CROWDSALE_TIERS))); // tier purchase price\n    }\n\n    // Read from storage\n    read_values = ptr.readMultiFrom(_storage).toUintArr();\n    // Ensure correct return length\n    assert(read_values.length == 2 * num_tiers);\n\n    // Loop through and get wei raise cap and token sell cap\n    for (i = 0; i < read_values.length; i+=2) {\n      total_sell_cap += read_values[i];\n      // Increase maximum wei able to be raised - (tier token sell cap) * (tier price in wei) / (10 ^ decimals)\n      wei_raise_cap += (read_values[i] * read_values[i + 1]) / (10 ** num_decimals);\n    }\n  }\n\n  /*\n  Returns a list of the named tiers of the crowdsale\n\n  @param _storage: The storage address of the crowdsale application\n  @param _exec_id: The execution id of the application\n  @return crowdsale_tiers: A list of each tier of the crowdsale\n  */\n  function getCrowdsaleTierList(address _storage, bytes32 _exec_id) public view returns (bytes32[] memory crowdsale_tiers) {\n    // Create 'read' calldata buffer in memory\n    uint ptr = ReadFromBuffers.cdBuff(RD_SING);\n    // Push exec id and crowdsale tier list length location to buffer\n    ptr.cdPush(_exec_id);\n    ptr.cdPush(CROWDSALE_TIERS);\n    // Read from storage and get list length\n    uint list_length = uint(ptr.readSingleFrom(_storage));\n\n    // Overwrite previous buffer, and create 'readMulti' calldata buffer\n    ptr.cdOverwrite(RD_MULTI);\n    // Push exec id, data read offset, and read size to buffer\n    ptr.cdPush(_exec_id);\n    ptr.cdPush(0x40);\n    ptr.cdPush(bytes32(list_length));\n    // Loop over each tier name list location and add to buffer\n    for (uint i = 0; i < list_length; i++)\n      ptr.cdPush(bytes32(32 + (192 * i) + uint(CROWDSALE_TIERS)));\n\n    // Read from storage and return\n    crowdsale_tiers = ptr.readMultiFrom(_storage);\n    // Ensure correct return length\n    assert(crowdsale_tiers.length == list_length);\n  }\n\n  /*\n  Loops through all tiers and their durations, and returns the passed-in index's start and end dates\n\n  @param _storage: The address where application storage is located\n  @param _exec_id: The application execution id under which storage for this instance is located\n  @param _index: The index of the tier in the crowdsale tier list. Input index should be like a normal array index (lowest index: 0)\n  @return tier_start: The time when the given tier starts\n  @return tier_end: The time at which the given tier ends\n  */\n  function getTierStartAndEndDates(address _storage, bytes32 _exec_id, uint _index) public view returns (uint tier_start, uint tier_end) {\n    // Create 'readMulti' calldata buffer in memory\n    uint ptr = ReadFromBuffers.cdBuff(RD_MULTI);\n    // Push exec id, data read offset, and read size to calldata buffer\n    ptr.cdPush(_exec_id);\n    ptr.cdPush(0x40);\n    ptr.cdPush(bytes32(3 + _index));\n    // Add crowdsale tier list length and crowdsale start time to buffer\n    ptr.cdPush(CROWDSALE_TIERS);\n    ptr.cdPush(CROWDSALE_START_TIME);\n    // Get storage read offset for initial tier duration, then loop over each tier until _index and add their duration storage locations to the read buffer\n    bytes32 duration_offset = bytes32(128 + uint(CROWDSALE_TIERS));\n    for (uint i = 0; i <= _index; i++) {\n      ptr.cdPush(duration_offset);\n      // Increment the duration offset to the next index in the array\n      duration_offset = bytes32(192 + uint(duration_offset));\n    }\n    // Read from storage and store return in buffer\n    uint[] memory read_values = ptr.readMultiFrom(_storage).toUintArr();\n    // Ensure correct return length\n    assert(read_values.length == 3 + _index);\n\n    // Check that the passed-in index is within the range of the tier list\n    if (read_values[0] <= _index)\n      return (0, 0);\n\n    // Get returned start time, then loop through each returned duration and get the start time for the tier\n    tier_start = read_values[1];\n    for (i = 0; i < _index; i++)\n      tier_start += read_values[2 + i];\n\n    // Get the tier end time - start time plus the duration of the tier, the last read value in the list\n    tier_end = tier_start + read_values[read_values.length - 1];\n  }\n\n  /*\n  Returns the number of tokens sold so far this crowdsale\n\n  @param _storage: The address where application storage is located\n  @param _exec_id: The application execution id under which storage for this instance is located\n  @return tokens_sold: The number of tokens sold this crowdsale so far\n  */\n  function getTokensSold(address _storage, bytes32 _exec_id) public view\n  returns (uint tokens_sold) {\n    // Create 'read' calldata buffer in memory\n    uint ptr = ReadFromBuffers.cdBuff(RD_SING);\n    // Push exec id to buffer\n    ptr.cdPush(_exec_id);\n    // Push crowdsale total tokens sold location to buffer\n    ptr.cdPush(CROWDSALE_TOKENS_SOLD);\n    // Read from storage and return\n    tokens_sold = uint(ptr.readSingleFrom(_storage));\n  }\n\n  /*\n  Returns whitelist information for a given buyer\n\n  @param _storage: The address where application storage is located\n  @param _exec_id: The application execution id under which storage for this instance is located\n  @param _tier_index: The index of the tier about which the whitelist information will be pulled\n  @param _buyer: The address of the user whose whitelist status will be returned\n  @return minimum_contribution: The minimum ammount of tokens the buyer must purchase during this tier\n  @return max_spend_remaining: The maximum amount of wei able to be spent by the buyer during this tier\n  */\n  function getWhitelistStatus(address _storage, bytes32 _exec_id, uint _tier_index, address _buyer) public view\n  returns (uint minimum_contribution, uint max_spend_remaining) {\n    // Create 'readMulti' calldata buffer in memory\n    uint ptr = ReadFromBuffers.cdBuff(RD_MULTI);\n    // Push exec id, data read offset, and read size to buffer\n    ptr.cdPush(_exec_id);\n    ptr.cdPush(0x40);\n    ptr.cdPush(bytes32(2));\n    // Get buyer whitelist location for the tier -\n    bytes32 location = keccak256(keccak256(_buyer), keccak256(_tier_index, SALE_WHITELIST));\n    // Push whitelist minimum contribution location to buffer\n    ptr.cdPush(location);\n    // Push whitlist maximum spend amount remaining location to buffer\n    ptr.cdPush(bytes32(32 + uint(location)));\n\n    // Read from storage and return\n    uint[] memory read_values = ptr.readMultiFrom(_storage).toUintArr();\n    // Ensure correct return length\n    assert(read_values.length == 2);\n\n    minimum_contribution = read_values[0];\n    max_spend_remaining = read_values[1];\n  }\n\n  /*\n  Returns the list of whitelisted buyers for a given tier\n\n  @param _storage: The address where application storage is located\n  @param _exec_id: The application execution id under which storage for this instance is located\n  @param _tier_index: The index of the tier about which the whitelist information will be pulled\n  @return num_whitelisted: The length of the tier's whitelist array\n  @return whitelist: The tier's whitelisted addresses\n  */\n  function getTierWhitelist(address _storage, bytes32 _exec_id, uint _tier_index) public view returns (uint num_whitelisted, address[] memory whitelist) {\n    // Create 'read' calldata buffer in memory\n    uint ptr = ReadFromBuffers.cdBuff(RD_SING);\n    // Push exec id and tier whitelist storage location to calldata buffer\n    ptr.cdPush(_exec_id);\n    ptr.cdPush(keccak256(_tier_index, SALE_WHITELIST));\n    // Read from storage and get returned tier whitelist length\n    num_whitelisted = uint(ptr.readSingleFrom(_storage));\n\n    // Overwrite previous buffer and loop through the whitelist number to get each whitelisted address\n    ptr.cdOverwrite(RD_MULTI);\n    // Push exec id, data read offset, and read size to buffer\n    ptr.cdPush(_exec_id);\n    ptr.cdPush(0x40);\n    ptr.cdPush(bytes32(num_whitelisted));\n    // Loop through the number of whitelisted addresses, and push each to the calldata buffer to be read from storage\n    for (uint i = 0; i < num_whitelisted; i++)\n      ptr.cdPush(bytes32(32 + (32 * i) + uint(keccak256(_tier_index, SALE_WHITELIST))));\n\n    // Read from storage and return\n    whitelist = ptr.readMultiFrom(_storage).toAddressArr();\n    // Ensure correct return length\n    assert(whitelist.length == num_whitelisted);\n  }\n\n  /// TOKEN GETTERS ///\n\n  /*\n  Returns the balance of an address\n\n  @param _storage: The address where application storage is located\n  @param _exec_id: The application execution id under which storage for this instance is located\n  @param _owner: The address to look up the balance of\n  @return owner_balance: The token balance of the owner\n  */\n  function balanceOf(address _storage, bytes32 _exec_id, address _owner) public view\n  returns (uint owner_balance) {\n    // Create 'read' calldata buffer in memory\n    uint ptr = ReadFromBuffers.cdBuff(RD_SING);\n    // Push exec id and owner balance location to buffer\n    ptr.cdPush(_exec_id);\n    ptr.cdPush(keccak256(keccak256(_owner), TOKEN_BALANCES));\n    // Read from storage\n    owner_balance = uint(ptr.readSingleFrom(_storage));\n  }\n\n  /*\n  Returns the amount of tokens a spender may spend on an owner's behalf\n\n  @param _storage: The address where application storage is located\n  @param _exec_id: The application execution id under which storage for this instance is located\n  @param _owner: The address allowing spends from a spender\n  @param _spender: The address allowed tokens by the owner\n  @return allowed: The amount of tokens that can be transferred from the owner to a location of the spender's choosing\n  */\n  function allowance(address _storage, bytes32 _exec_id, address _owner, address _spender) public view\n  returns (uint allowed) {\n    // Create 'read' calldata buffer in memory\n    uint ptr = ReadFromBuffers.cdBuff(RD_SING);\n    // Push exec id and spender allowance location to buffer\n    ptr.cdPush(_exec_id);\n    ptr.cdPush(keccak256(keccak256(_spender), keccak256(keccak256(_owner), TOKEN_ALLOWANCES)));\n    // Read from storage\n    allowed = uint(ptr.readSingleFrom(_storage));\n  }\n\n  /*\n  Returns the number of display decimals for a token\n\n  @param _storage: The address where application storage is located\n  @param _exec_id: The application execution id under which storage for this instance is located\n  @return token_decimals: The number of decimals associated with token balances\n  */\n  function decimals(address _storage, bytes32 _exec_id) public view\n  returns (uint token_decimals) {\n    // Create 'read' calldata buffer in memory\n    uint ptr = ReadFromBuffers.cdBuff(RD_SING);\n    // Push exec id and token decimals storage location to buffer\n    ptr.cdPush(_exec_id);\n    ptr.cdPush(TOKEN_DECIMALS);\n    // Read from storage\n    token_decimals = uint(ptr.readSingleFrom(_storage));\n  }\n\n  /*\n  Returns the total token supply of a given token app instance\n\n  @param _storage: The address where application storage is located\n  @param _exec_id: The application execution id under which storage for this instance is located\n  @return total_supply: The total token supply\n  */\n  function totalSupply(address _storage, bytes32 _exec_id) public view\n  returns (uint total_supply) {\n    // Create 'read' calldata buffer in memory\n    uint ptr = ReadFromBuffers.cdBuff(RD_SING);\n    // Push exec id and token total supply storage location to buffer\n    ptr.cdPush(_exec_id);\n    ptr.cdPush(TOKEN_TOTAL_SUPPLY);\n    // Read from storage\n    total_supply = uint(ptr.readSingleFrom(_storage));\n  }\n\n  /*\n  Returns the name field of a given token app instance\n\n  @param _storage: The address where application storage is located\n  @param _exec_id: The application execution id under which storage for this instance is located\n  @return token_name: The name of the token\n  */\n  function name(address _storage, bytes32 _exec_id) public view returns (bytes32 token_name) {\n    // Create 'read' calldata buffer in memory\n    uint ptr = ReadFromBuffers.cdBuff(RD_SING);\n    // Push exec id and token name storage location to buffer\n    ptr.cdPush(_exec_id);\n    ptr.cdPush(TOKEN_NAME);\n    // Read from storage\n    token_name = ptr.readSingleFrom(_storage);\n  }\n\n  /*\n  Returns the ticker symbol of a given token app instance\n\n  @param _storage: The address where application storage is located\n  @param _exec_id: The application execution id under which storage for this instance is located\n  @return token_symbol: The token's ticker symbol\n  */\n  function symbol(address _storage, bytes32 _exec_id) public view returns (bytes32 token_symbol) {\n    // Create 'read' calldata buffer in memory\n    uint ptr = ReadFromBuffers.cdBuff(RD_SING);\n    // Push exec id and token symbol storage location to buffer\n    ptr.cdPush(_exec_id);\n    ptr.cdPush(TOKEN_SYMBOL);\n    // Read from storage\n    token_symbol = ptr.readSingleFrom(_storage);\n  }\n\n  /*\n  Returns general information on a token - name, symbol, decimals, and total supply\n\n  @param _storage: The address where application storage is located\n  @param _exec_id: The application execution id under which storage for this instance is located\n  @return token_name: The name of the token\n  @return token_symbol: The token ticker symbol\n  @return token_decimals: The display decimals for the token\n  @return total_supply: The total supply of the token\n  */\n  function getTokenInfo(address _storage, bytes32 _exec_id) public view\n  returns (bytes32 token_name, bytes32 token_symbol, uint token_decimals, uint total_supply) {\n    // Create 'readMulti' calldata buffer in memory\n    uint ptr = ReadFromBuffers.cdBuff(RD_MULTI);\n    // Push exec id, data read offset, and read size to buffer\n    ptr.cdPush(_exec_id);\n    ptr.cdPush(0x40);\n    ptr.cdPush(bytes32(4));\n    // Place token name, symbol, decimals, and total supply storage locations in buffer\n    ptr.cdPush(TOKEN_NAME);\n    ptr.cdPush(TOKEN_SYMBOL);\n    ptr.cdPush(TOKEN_DECIMALS);\n    ptr.cdPush(TOKEN_TOTAL_SUPPLY);\n\n    // Read from storage\n    bytes32[] memory read_values = ptr.readMultiFrom(_storage);\n    // Ensure correct return length\n    assert(read_values.length == 4);\n\n    // Get return values -\n    token_name = read_values[0];\n    token_symbol = read_values[1];\n    token_decimals = uint(read_values[2]);\n    total_supply = uint(read_values[3]);\n  }\n\n  /*\n  Returns whether or not an address is a transfer agent, meaning they can transfer tokens before the crowdsale is finalized\n\n  @param _storage: The address where application storage is located\n  @param _exec_id: The application execution id under storage for this app instance is located\n  @param _agent: The address about which to look up information\n  @return is_transfer_agent: Whether the passed-in address is a transfer agent\n  */\n  function getTransferAgentStatus(address _storage, bytes32 _exec_id, address _agent) public view\n  returns (bool is_transfer_agent) {\n    // Create 'read' calldata buffer in memory\n    uint ptr = ReadFromBuffers.cdBuff(RD_SING);\n    // Push exec id and transfer agent status storage location to buffer\n    ptr.cdPush(_exec_id);\n    ptr.cdPush(keccak256(keccak256(_agent), TOKEN_TRANSFER_AGENTS));\n    // Read from storage\n    is_transfer_agent = (ptr.readSingleFrom(_storage) == 0 ? false : true);\n  }\n\n  /*\n  Returns information on a reserved token address (the crowdsale admin can set reserved tokens for addresses before initializing the crowdsale)\n\n  @param _storage: The address where application storage is located\n  @param _exec_id: The application execution id under storage for this app instance is located\n  @return num_destinations: The length of the crowdsale's reserved token destination array\n  @return reserved_destinations: A list of the addresses which have reserved tokens or percents\n  */\n  function getReservedTokenDestinationList(address _storage, bytes32 _exec_id) public view\n  returns (uint num_destinations, address[] memory reserved_destinations) {\n    // Create 'read' calldata buffer in memory\n    uint ptr = ReadFromBuffers.cdBuff(RD_SING);\n    // Push exec id and reserved token destination list location to calldata buffer\n    ptr.cdPush(_exec_id);\n    ptr.cdPush(TOKEN_RESERVED_DESTINATIONS);\n    // Read reserved destination list length from storage\n    num_destinations = uint(ptr.readSingleFrom(_storage));\n\n    // If num_destinations is 0, return now\n    if (num_destinations == 0)\n      return (0, reserved_destinations);\n\n    /// Loop through each list in storage, and get each address -\n\n    // Overwrite previous buffer with new 'readMulti' calldata buffer -\n    ptr.cdOverwrite(RD_MULTI);\n    // Push exec id, data read offset, and read size to buffer\n    ptr.cdPush(_exec_id);\n    ptr.cdPush(0x40);\n    ptr.cdPush(bytes32(num_destinations));\n    // Add each destination index location to calldata\n    for (uint i = 1; i <= num_destinations; i++)\n      ptr.cdPush(bytes32((32 * i) + uint(TOKEN_RESERVED_DESTINATIONS)));\n\n    // Read from storage, and return data to buffer\n    reserved_destinations = ptr.readMultiFrom(_storage).toAddressArr();\n    // Ensure correct return length\n    assert(reserved_destinations.length == num_destinations);\n  }\n\n  /*\n  Returns information on a reserved token address (the crowdsale admin can set reserved tokens for addresses before initializing the crowdsale)\n\n  @param _storage: The address where application storage is located\n  @param _exec_id: The application execution id under storage for this app instance is located\n  @param _destination: The address about which reserved token information will be pulled\n  @return destination_list_index: The index in the reserved token destination list where this address is found, plus 1. If zero, destination has no reserved tokens\n  @return num_tokens: The number of tokens reserved for this address\n  @return num_percent: The percent of tokens sold during the crowdsale reserved for this address\n  @return percent_decimals: The number of decimals in the above percent reserved - used to calculate with precision\n  */\n  function getReservedDestinationInfo(address _storage, bytes32 _exec_id, address _destination) public view\n  returns (uint destination_list_index, uint num_tokens, uint num_percent, uint percent_decimals) {\n    // Create 'readMulti' calldata buffer in memory\n    uint ptr = ReadFromBuffers.cdBuff(RD_MULTI);\n    // Push exec id, data read offset, and read size to buffer\n    ptr.cdPush(_exec_id);\n    ptr.cdPush(0x40);\n    ptr.cdPush(bytes32(4));\n    // Push reserved destination information storage locations to buffer -\n    uint base_loc = uint(keccak256(keccak256(_destination), TOKEN_RESERVED_ADDR_INFO));\n    ptr.cdPush(bytes32(base_loc));\n    ptr.cdPush(bytes32(32 + base_loc));\n    ptr.cdPush(bytes32(64 + base_loc));\n    ptr.cdPush(bytes32(96 + base_loc));\n\n    // Read from storage, and return data to buffer\n    bytes32[] memory read_values = ptr.readMultiFrom(_storage);\n    // Ensure correct return length\n    assert(read_values.length == 4);\n\n    // Get returned values -\n    destination_list_index = uint(read_values[0]);\n    // If the returned list index for the destination is 0, destination is not in list\n    if (destination_list_index == 0)\n      return;\n    destination_list_index--;\n    num_tokens = uint(read_values[1]);\n    num_percent = uint(read_values[2]);\n    percent_decimals = uint(read_values[3]);\n  }\n}\n",
  "sourcePath": "/Users/viktor/Documents/POANetwork/auth-os-applications-myfork/TokenWizard/crowdsale/MintedCappedCrowdsale/contracts/init/InitCrowdsale.sol",
  "compiler": {
    "name": "solc",
    "version": "0.4.23+commit.124ca40d.Emscripten.clang"
  },
  "schemaVersion": "2.0.0",
  "updatedAt": "2018-05-03T09:24:31.215Z"
}