{
  "contractName": "TokenConsole",
  "abi": [
    {
      "constant": true,
      "inputs": [
        {
          "name": "_agent",
          "type": "address"
        },
        {
          "name": "_is_transfer_agent",
          "type": "bool"
        },
        {
          "name": "_context",
          "type": "bytes"
        }
      ],
      "name": "setTransferAgentStatus",
      "outputs": [
        {
          "name": "store_data",
          "type": "bytes32[]"
        }
      ],
      "payable": false,
      "stateMutability": "view",
      "type": "function"
    },
    {
      "constant": true,
      "inputs": [
        {
          "name": "_destinations",
          "type": "address[]"
        },
        {
          "name": "_num_tokens",
          "type": "uint256[]"
        },
        {
          "name": "_num_percents",
          "type": "uint256[]"
        },
        {
          "name": "_percent_decimals",
          "type": "uint256[]"
        },
        {
          "name": "_context",
          "type": "bytes"
        }
      ],
      "name": "updateMultipleReservedTokens",
      "outputs": [
        {
          "name": "store_data",
          "type": "bytes32[]"
        }
      ],
      "payable": false,
      "stateMutability": "view",
      "type": "function"
    },
    {
      "constant": true,
      "inputs": [
        {
          "name": "_destination",
          "type": "address"
        },
        {
          "name": "_context",
          "type": "bytes"
        }
      ],
      "name": "removeReservedTokens",
      "outputs": [
        {
          "name": "store_data",
          "type": "bytes32[]"
        }
      ],
      "payable": false,
      "stateMutability": "view",
      "type": "function"
    },
    {
      "constant": true,
      "inputs": [
        {
          "name": "_amt",
          "type": "uint256"
        },
        {
          "name": "_context",
          "type": "bytes"
        }
      ],
      "name": "distributeReservedTokens",
      "outputs": [
        {
          "name": "store_data",
          "type": "bytes32[]"
        }
      ],
      "payable": false,
      "stateMutability": "view",
      "type": "function"
    },
    {
      "constant": true,
      "inputs": [
        {
          "name": "_context",
          "type": "bytes"
        }
      ],
      "name": "finalizeCrowdsaleAndToken",
      "outputs": [
        {
          "name": "store_data",
          "type": "bytes32[]"
        }
      ],
      "payable": false,
      "stateMutability": "view",
      "type": "function"
    },
    {
      "constant": true,
      "inputs": [
        {
          "name": "_context",
          "type": "bytes"
        }
      ],
      "name": "finalizeAndDistributeToken",
      "outputs": [
        {
          "name": "store_data",
          "type": "bytes32[]"
        }
      ],
      "payable": false,
      "stateMutability": "view",
      "type": "function"
    }
  ],
  "bytecode": "0x6140e762000031600b82828239805160001a6073146000811461002157610023565bfe5b5030600052607381538281f300730000000000000000000000000000000000000000301460806040526004361061008f576000357c0100000000000000000000000000000000000000000000000000000000900463ffffffff1680632e00de601461009457806338afd1a61461016557806361a1e1551461032257806363ac4e68146103d3578063f5667edf1461048e578063f6eebed51461056b575b600080fd5b61010e600480360381019080803573ffffffffffffffffffffffffffffffffffffffff169060200190929190803590602001908201803590602001908080601f016020809104026020016040519081016040528093929190818152602001838380828437820191505050505050919291929050505061061c565b6040518080602001828103825283818151815260200191508051906020019060200280838360005b83811015610151578082015181840152602081019050610136565b505050509050019250505060405180910390f35b6102cb60048036038101908080359060200190820180359060200190808060200260200160405190810160405280939291908181526020018383602002808284378201915050505050509192919290803590602001908201803590602001908080602002602001604051908101604052809392919081815260200183836020028082843782019150505050505091929192908035906020019082018035906020019080806020026020016040519081016040528093929190818152602001838360200280828437820191505050505050919291929080359060200190820180359060200190808060200260200160405190810160405280939291908181526020018383602002808284378201915050505050509192919290803590602001908201803590602001908080601f0160208091040260200160405190810160405280939291908181526020018383808284378201915050505050509192919290505050610d2a565b6040518080602001828103825283818151815260200191508051906020019060200280838360005b8381101561030e5780820151818401526020810190506102f3565b505050509050019250505060405180910390f35b61037c600480360381019080803590602001908201803590602001908080601f016020809104026020016040519081016040528093929190818152602001838380828437820191505050505050919291929050505061176f565b6040518080602001828103825283818151815260200191508051906020019060200280838360005b838110156103bf5780820151818401526020810190506103a4565b505050509050019250505060405180910390f35b61043760048036038101908080359060200190929190803590602001908201803590602001908080601f0160208091040260200160405190810160405280939291908181526020018383808284378201915050505050509192919290505050611a2e565b6040518080602001828103825283818151815260200191508051906020019060200280838360005b8381101561047a57808201518184015260208101905061045f565b505050509050019250505060405180910390f35b610514600480360381019080803573ffffffffffffffffffffffffffffffffffffffff169060200190929190803515159060200190929190803590602001908201803590602001908080601f016020809104026020016040519081016040528093929190818152602001838380828437820191505050505050919291929050505061251f565b6040518080602001828103825283818151815260200191508051906020019060200280838360005b8381101561055757808201518184015260208101905061053c565b505050509050019250505060405180910390f35b6105c5600480360381019080803590602001908201803590602001908080601f016020809104026020016040519081016040528093929190818152602001838380828437820191505050505050919291929050505061279a565b6040518080602001828103825283818151815260200191508051906020019060200280838360005b838110156106085780820151818401526020810190506105ed565b505050509050019250505060405180910390f35b60606000806000606060008060008073ffffffffffffffffffffffffffffffffffffffff168a73ffffffffffffffffffffffffffffffffffffffff16141561068c5761068b7f496e76616c696444657374696e6174696f6e00000000000000000000000000006000191661332b565b5b61069589613335565b5080985081975050506106dc60405180807f726561644d756c746928627974657333322c627974657333325b5d2900000000815250601c0190506040518091039020613404565b94506106f1868661342190919063ffffffff16565b61070860406001028661342190919063ffffffff16565b61071f60046001028661342190919063ffffffff16565b61076760405180807f61646d696e000000000000000000000000000000000000000000000000000000815250600501905060405180910390208661342190919063ffffffff16565b6107af60405180807f63726f776473616c655f69735f696e6974000000000000000000000000000000815250601101905060405180910390208661342190919063ffffffff16565b6107f760405180807f746f6b656e5f72657365727665645f646573745f6c6973740000000000000000815250601801905060405180910390208661342190919063ffffffff16565b6108bc8a604051808273ffffffffffffffffffffffffffffffffffffffff1673ffffffffffffffffffffffffffffffffffffffff166c01000000000000000000000000028152601401915050604051809103902060405180807f746f6b656e5f72657365727665645f616464725f696e666f00000000000000008152506018019050604051809103902060405180836000191660001916815260200182600019166000191681526020019250505060405180910390208661342190919063ffffffff16565b6108c58561344c565b9350600484511415156108d457fe5b8673ffffffffffffffffffffffffffffffffffffffff166001026000191684600081518110151561090157fe5b906020019060200201516000191614158061093c5750600060010284600181518110151561092b57fe5b906020019060200201516000191614155b1561096f5761096e7f4e6f7441646d696e4f7253616c654973496e69740000000000000000000000006000191661332b565b5b83600281518110151561097e57fe5b9060200190602002015160019004925083600381518110151561099d57fe5b906020019060200201516001900491508282111580156109be575060008214155b15156109c657fe5b828214156109e9576109e4600080876134ce9092919063ffffffff16565b610bf7565b610a3160405180807f7265616428627974657333322c6279746573333229000000000000000000000081525060150190506040518091039020866134e790919063ffffffff16565b610a44868661342190919063ffffffff16565b610a9860405180807f746f6b656e5f72657365727665645f646573745f6c6973740000000000000000815250601801905060405180910390206001900484602002016001028661342190919063ffffffff16565b610aa1856134f5565b600190049050610abd600080876134ce9092919063ffffffff16565b610b8781604051808273ffffffffffffffffffffffffffffffffffffffff1673ffffffffffffffffffffffffffffffffffffffff166c01000000000000000000000000028152601401915050604051809103902060405180807f746f6b656e5f72657365727665645f616464725f696e666f0000000000000000815250601801905060405180910390206040518083600019166000191681526020018260001916600019168152602001925050506040518091039020836001028761355f9092919063ffffffff16565b610bf660405180807f746f6b656e5f72657365727665645f646573745f6c6973740000000000000000815250601801905060405180910390206001900483602002016001028273ffffffffffffffffffffffffffffffffffffffff166001028761355f9092919063ffffffff16565b5b610c4760405180807f746f6b656e5f72657365727665645f646573745f6c697374000000000000000081525060180190506040518091039020600185036001028761355f9092919063ffffffff16565b610d128a604051808273ffffffffffffffffffffffffffffffffffffffff1673ffffffffffffffffffffffffffffffffffffffff166c01000000000000000000000000028152601401915050604051809103902060405180807f746f6b656e5f72657365727665645f616464725f696e666f000000000000000081525060180190506040518091039020604051808360001916600019168152602001826000191660001916815260200192505050604051809103902060006001028761355f9092919063ffffffff16565b610d1b85613596565b97505050505050505092915050565b606060008060008060606000808b518d51141580610d4a57508a518c5114155b80610d57575089518b5114155b80610d63575060008d51145b15610d9657610d957f496e76616c6964496e70757441727261790000000000000000000000000000006000191661332b565b5b610d9f89613335565b508098508197505050610de660405180807f726561644d756c746928627974657333322c627974657333325b5d2900000000815250601c0190506040518091039020613404565b9450610dfb868661342190919063ffffffff16565b610e1260406001028661342190919063ffffffff16565b610e2c8d516003016001028661342190919063ffffffff16565b610e7460405180807f61646d696e000000000000000000000000000000000000000000000000000000815250600501905060405180910390208661342190919063ffffffff16565b610ebc60405180807f63726f776473616c655f69735f696e6974000000000000000000000000000000815250601101905060405180910390208661342190919063ffffffff16565b610f0460405180807f746f6b656e5f72657365727665645f646573745f6c6973740000000000000000815250601801905060405180910390208661342190919063ffffffff16565b600093505b8c5184101561107557600073ffffffffffffffffffffffffffffffffffffffff168d85815181101515610f3857fe5b9060200190602002015173ffffffffffffffffffffffffffffffffffffffff161415610f8c57610f8b7f496e76616c696444657374696e6174696f6e00000000000000000000000000006000191661332b565b5b6110688d85815181101515610f9d57fe5b90602001906020020151604051808273ffffffffffffffffffffffffffffffffffffffff1673ffffffffffffffffffffffffffffffffffffffff166c01000000000000000000000000028152601401915050604051809103902060405180807f746f6b656e5f72657365727665645f616464725f696e666f00000000000000008152506018019050604051809103902060405180836000191660001916815260200182600019166000191681526020019250505060405180910390208661342190919063ffffffff16565b8380600101945050610f09565b61107e8561344c565b92508c51600301835114151561109057fe5b8673ffffffffffffffffffffffffffffffffffffffff16600102600019168360008151811015156110bd57fe5b90602001906020020151600019161415806110f8575060006001028360018151811015156110e757fe5b906020019060200201516000191614155b1561112b5761112a7f4e6f7441646d696e4f7253616c654973496e69740000000000000000000000006000191661332b565b5b6111366000806135b9565b9450600393505b82518410156116f2578c6003850381518110151561115757fe5b9060200190602002015191506000600102838581518110151561117657fe5b9060200190602002015160001916141561141a5760018d510390505b600384038111156111ff578173ffffffffffffffffffffffffffffffffffffffff168d828151811015156111c257fe5b9060200190602002015173ffffffffffffffffffffffffffffffffffffffff1614156111f157600091506111ff565b808060019003915050611192565b600073ffffffffffffffffffffffffffffffffffffffff168273ffffffffffffffffffffffffffffffffffffffff161415611239576116e5565b600183600281518110151561124a57fe5b90602001906020020151600190040160010283600281518110151561126b57fe5b906020019060200201906000191690816000191681525050601483600281518110151561129457fe5b9060200190602002015160019004111515156112af57600080fd5b61133a60405180807f746f6b656e5f72657365727665645f646573745f6c697374000000000000000081525060180190506040518091039020600190048460028151811015156112fb57fe5b9060200190602002015160019004602002016001028373ffffffffffffffffffffffffffffffffffffffff166001028761355f9092919063ffffffff16565b61141982604051808273ffffffffffffffffffffffffffffffffffffffff1673ffffffffffffffffffffffffffffffffffffffff166c01000000000000000000000000028152601401915050604051809103902060405180807f746f6b656e5f72657365727665645f616464725f696e666f00000000000000008152506018019050604051809103902060405180836000191660001916815260200182600019166000191681526020019250505060405180910390208460028151811015156113ff57fe5b906020019060200201518761355f9092919063ffffffff16565b5b61150882604051808273ffffffffffffffffffffffffffffffffffffffff1673ffffffffffffffffffffffffffffffffffffffff166c01000000000000000000000000028152601401915050604051809103902060405180807f746f6b656e5f72657365727665645f616464725f696e666f0000000000000000815250601801905060405180910390206040518083600019166000191681526020018260001916600019168152602001925050506040518091039020600190046020016001028d600387038151811015156114eb57fe5b906020019060200201516001028761355f9092919063ffffffff16565b6115f682604051808273ffffffffffffffffffffffffffffffffffffffff1673ffffffffffffffffffffffffffffffffffffffff166c01000000000000000000000000028152601401915050604051809103902060405180807f746f6b656e5f72657365727665645f616464725f696e666f0000000000000000815250601801905060405180910390206040518083600019166000191681526020018260001916600019168152602001925050506040518091039020600190046040016001028c600387038151811015156115d957fe5b906020019060200201516001028761355f9092919063ffffffff16565b6116e482604051808273ffffffffffffffffffffffffffffffffffffffff1673ffffffffffffffffffffffffffffffffffffffff166c01000000000000000000000000028152601401915050604051809103902060405180807f746f6b656e5f72657365727665645f616464725f696e666f0000000000000000815250601801905060405180910390206040518083600019166000191681526020018260001916600019168152602001925050506040518091039020600190046060016001028b600387038151811015156116c757fe5b906020019060200201516001028761355f9092919063ffffffff16565b5b838060010194505061113d565b61175460405180807f746f6b656e5f72657365727665645f646573745f6c69737400000000000000008152506018019050604051809103902084600281518110151561173a57fe5b906020019060200201518761355f9092919063ffffffff16565b61175d85613596565b97505050505050505095945050505050565b60606000806000606061178186613335565b5080955081945050506117c860405180807f726561644d756c746928627974657333322c627974657333325b5d2900000000815250601c0190506040518091039020613404565b91506117dd838361342190919063ffffffff16565b6117f460406001028361342190919063ffffffff16565b61180b60036001028361342190919063ffffffff16565b61185360405180807f61646d696e000000000000000000000000000000000000000000000000000000815250600501905060405180910390208361342190919063ffffffff16565b61189b60405180807f63726f776473616c655f69735f696e6974000000000000000000000000000000815250601101905060405180910390208361342190919063ffffffff16565b6118e360405180807f63726f776473616c655f69735f66696e616c697a656400000000000000000000815250601601905060405180910390208361342190919063ffffffff16565b6118ec8261344c565b9050600381511415156118fb57fe5b8373ffffffffffffffffffffffffffffffffffffffff166001026000191681600081518110151561192857fe5b90602001906020020151600019161415806119625750600060010281600181518110151561195257fe5b9060200190602002015160001916145b8061198f5750600180026000191681600281518110151561197f57fe5b9060200190602002015160001916145b156119c2576119c17f4e6f7441646d696e4f72537461747573496e76616c69640000000000000000006000191661332b565b5b6119cb836135dd565b9150611a1a60405180807f63726f776473616c655f69735f66696e616c697a65640000000000000000000081525060160190506040518091039020600180028461355f9092919063ffffffff16565b611a2382613596565b945050505050919050565b606060008060006060600080600080606060008060008e1415611a7957611a787f496e76616c6964416d74000000000000000000000000000000000000000000006000191661332b565b5b611a828d613335565b50809c50819b505050611ac960405180807f726561644d756c746928627974657333322c627974657333325b5d2900000000815250601c0190506040518091039020613404565b9850611ade8a8a61342190919063ffffffff16565b611af560406001028a61342190919063ffffffff16565b611b0c60046001028a61342190919063ffffffff16565b611b5460405180807f63726f776473616c655f69735f66696e616c697a656400000000000000000000815250601601905060405180910390208a61342190919063ffffffff16565b611b9c60405180807f63726f776473616c655f746f6b656e735f736f6c640000000000000000000000815250601501905060405180910390208a61342190919063ffffffff16565b611be460405180807f746f6b656e5f746f74616c5f737570706c790000000000000000000000000000815250601201905060405180910390208a61342190919063ffffffff16565b611c2c60405180807f746f6b656e5f72657365727665645f646573745f6c6973740000000000000000815250601801905060405180910390208a61342190919063ffffffff16565b611c358961344c565b975060048851141515611c4457fe5b6000600102886000815181101515611c5857fe5b90602001906020020151600019161415611c9a57611c997f43726f776473616c654e6f7446696e616c697a656400000000000000000000006000191661332b565b5b876001815181101515611ca957fe5b90602001906020020151600190049650876002815181101515611cc857fe5b90602001906020020151600190049550876003815181101515611ce757fe5b90602001906020020151600190049450848e1115611d0357849d505b611d4b60405180807f726561644d756c746928627974657333322c627974657333325b5d2900000000815250601c01905060405180910390208a6134e790919063ffffffff16565b611d5e8a8a61342190919063ffffffff16565b611d7560406001028a61342190919063ffffffff16565b611d8b8e6001028a61342190919063ffffffff16565b600093505b8d841015611dfb57611dee60405180807f746f6b656e5f72657365727665645f646573745f6c69737400000000000000008152506018019050604051809103902060019004858703602002016001028a61342190919063ffffffff16565b8380600101945050611d90565b611e048961344c565b97508d8851141515611e1257fe5b611e5060405180807f726561644d756c746928627974657333322c627974657333325b5d2900000000815250601c0190506040518091039020613404565b9850611e658a8a61342190919063ffffffff16565b611e7c60406001028a61342190919063ffffffff16565b611e958e6004026001028a61342190919063ffffffff16565b600093505b8d84101561221657611f4b8885815181101515611eb357fe5b90602001906020020151604051808260001916600019168152602001915050604051809103902060405180807f746f6b656e5f62616c616e636573000000000000000000000000000000000000815250600e019050604051809103902060405180836000191660001916815260200182600019166000191681526020019250505060405180910390208a61342190919063ffffffff16565b6120358885815181101515611f5c57fe5b9060200190602002015160019004604051808273ffffffffffffffffffffffffffffffffffffffff1673ffffffffffffffffffffffffffffffffffffffff166c01000000000000000000000000028152601401915050604051809103902060405180807f746f6b656e5f72657365727665645f616464725f696e666f0000000000000000815250601801905060405180910390206040518083600019166000191681526020018260001916600019168152602001925050506040518091039020600190046020016001028a61342190919063ffffffff16565b61211f888581518110151561204657fe5b9060200190602002015160019004604051808273ffffffffffffffffffffffffffffffffffffffff1673ffffffffffffffffffffffffffffffffffffffff166c01000000000000000000000000028152601401915050604051809103902060405180807f746f6b656e5f72657365727665645f616464725f696e666f0000000000000000815250601801905060405180910390206040518083600019166000191681526020018260001916600019168152602001925050506040518091039020600190046040016001028a61342190919063ffffffff16565b612209888581518110151561213057fe5b9060200190602002015160019004604051808273ffffffffffffffffffffffffffffffffffffffff1673ffffffffffffffffffffffffffffffffffffffff166c01000000000000000000000000028152601401915050604051809103902060405180807f746f6b656e5f72657365727665645f616464725f696e666f0000000000000000815250601801905060405180910390206040518083600019166000191681526020018260001916600019168152602001925050506040518091039020600190046060016001028a61342190919063ffffffff16565b8380600101945050611e9a565b6122276122228a61344c565b6140a7565b92508d600402835114151561223857fe5b6122436000806135b9565b985061229460405180807f746f6b656e5f72657365727665645f646573745f6c6973740000000000000000815250601801905060405180910390208f87036001028b61355f9092919063ffffffff16565b600093505b8d8410156124b65782600260048602018151811015156122b557fe5b90602001906020020151915082600360048602018151811015156122d557fe5b90602001906020020151600201905080600a0a9050808288028115156122f757fe5b04915081836001600487020181518110151561230f57fe5b9060200190602002015183011015151561232857600080fd5b826001600486020181518110151561233c57fe5b9060200190602002015182019150858287011015151561235b57600080fd5b8186019550826004850281518110151561237157fe5b90602001906020020151836004860281518110151561238c57fe5b906020019060200201518301101515156123a557600080fd5b82600485028151811015156123b657fe5b90602001906020020151820191506124a988858151811015156123d557fe5b9060200190602002015160019004604051808273ffffffffffffffffffffffffffffffffffffffff1673ffffffffffffffffffffffffffffffffffffffff166c01000000000000000000000000028152601401915050604051809103902060405180807f746f6b656e5f62616c616e636573000000000000000000000000000000000000815250600e01905060405180910390206040518083600019166000191681526020018260001916600019168152602001925050506040518091039020836001028b61355f9092919063ffffffff16565b8380600101945050612299565b61250360405180807f746f6b656e5f746f74616c5f737570706c79000000000000000000000000000081525060120190506040518091039020876001028b61355f9092919063ffffffff16565b61250c89613596565b9b50505050505050505050505092915050565b606060008060008073ffffffffffffffffffffffffffffffffffffffff168773ffffffffffffffffffffffffffffffffffffffff161415612588576125877f496e76616c69645472616e736665724167656e740000000000000000000000006000191661332b565b5b61259185613335565b5080945081935050506125d860405180807f7265616428627974657333322c6279746573333229000000000000000000000081525060150190506040518091039020613404565b90506125ed828261342190919063ffffffff16565b61263560405180807f61646d696e000000000000000000000000000000000000000000000000000000815250600501905060405180910390208261342190919063ffffffff16565b61263e816134f5565b600019168373ffffffffffffffffffffffffffffffffffffffff1660010260001916141515612695576126947f53656e64657249734e6f7441646d696e000000000000000000000000000000006000191661332b565b5b6126ab600080836134ce9092919063ffffffff16565b61278587604051808273ffffffffffffffffffffffffffffffffffffffff1673ffffffffffffffffffffffffffffffffffffffff166c01000000000000000000000000028152601401915050604051809103902060405180807f746f6b656e5f7472616e736665725f6167656e7473000000000000000000000081525060150190506040518091039020604051808360001916600019168152602001826000191660001916815260200192505050604051809103902087612770576000600102612775565b600180025b8361355f9092919063ffffffff16565b61278e81613596565b93505050509392505050565b60606000806000606060008060008060606000806127b78d613335565b50809c50819b5050506127fe60405180807f726561644d756c746928627974657333322c627974657333325b5d2900000000815250601c0190506040518091039020613404565b98506128138a8a61342190919063ffffffff16565b61282a60406001028a61342190919063ffffffff16565b61284160046001028a61342190919063ffffffff16565b61288960405180807f63726f776473616c655f746f6b656e735f736f6c640000000000000000000000815250601501905060405180910390208a61342190919063ffffffff16565b6128d160405180807f746f6b656e5f746f74616c5f737570706c790000000000000000000000000000815250601201905060405180910390208a61342190919063ffffffff16565b61291960405180807f746f6b656e5f72657365727665645f646573745f6c6973740000000000000000815250601801905060405180910390208a61342190919063ffffffff16565b61296160405180807f63726f776473616c655f69735f66696e616c697a656400000000000000000000815250601601905060405180910390208a61342190919063ffffffff16565b61297261296d8a61344c565b6140a7565b97506004885114151561298157fe5b87600081518110151561299057fe5b9060200190602002015196508760018151811015156129ab57fe5b9060200190602002015195508760028151811015156129c657fe5b90602001906020020151945060008860038151811015156129e357fe5b906020019060200201511415612a2157612a207f43726f776473616c654e6f7446696e616c697a656400000000000000000000006000191661332b565b5b6000851415612a9757612a356000806135b9565b9850612a8460405180807f746f6b656e735f6172655f756e6c6f636b65640000000000000000000000000081525060130190506040518091039020600180028b61355f9092919063ffffffff16565b612a8d89613596565b9b508b9b5061331b565b612adf60405180807f726561644d756c746928627974657333322c627974657333325b5d2900000000815250601c01905060405180910390208a6134e790919063ffffffff16565b612af28a8a61342190919063ffffffff16565b612b0960406001028a61342190919063ffffffff16565b612b1f856001028a61342190919063ffffffff16565b600093505b84841015612b9057612b8360405180807f746f6b656e5f72657365727665645f646573745f6c6973740000000000000000815250601801905060405180910390206001900485602002602001016001028a61342190919063ffffffff16565b8380600101945050612b24565b612ba1612b9c8a61344c565b6140b1565b9250848351141515612baf57fe5b612bed60405180807f726561644d756c746928627974657333322c627974657333325b5d2900000000815250601c0190506040518091039020613404565b9850612c028a8a61342190919063ffffffff16565b612c1960406001028a61342190919063ffffffff16565b612c32856004026001028a61342190919063ffffffff16565b600093505b84841015612fda57612d1b8385815181101515612c5057fe5b90602001906020020151604051808273ffffffffffffffffffffffffffffffffffffffff1673ffffffffffffffffffffffffffffffffffffffff166c01000000000000000000000000028152601401915050604051809103902060405180807f746f6b656e5f62616c616e636573000000000000000000000000000000000000815250600e019050604051809103902060405180836000191660001916815260200182600019166000191681526020019250505060405180910390208a61342190919063ffffffff16565b612e018385815181101515612d2c57fe5b90602001906020020151604051808273ffffffffffffffffffffffffffffffffffffffff1673ffffffffffffffffffffffffffffffffffffffff166c01000000000000000000000000028152601401915050604051809103902060405180807f746f6b656e5f72657365727665645f616464725f696e666f0000000000000000815250601801905060405180910390206040518083600019166000191681526020018260001916600019168152602001925050506040518091039020600190046020016001028a61342190919063ffffffff16565b612ee78385815181101515612e1257fe5b90602001906020020151604051808273ffffffffffffffffffffffffffffffffffffffff1673ffffffffffffffffffffffffffffffffffffffff166c01000000000000000000000000028152601401915050604051809103902060405180807f746f6b656e5f72657365727665645f616464725f696e666f0000000000000000815250601801905060405180910390206040518083600019166000191681526020018260001916600019168152602001925050506040518091039020600190046040016001028a61342190919063ffffffff16565b612fcd8385815181101515612ef857fe5b90602001906020020151604051808273ffffffffffffffffffffffffffffffffffffffff1673ffffffffffffffffffffffffffffffffffffffff166c01000000000000000000000000028152601401915050604051809103902060405180807f746f6b656e5f72657365727665645f616464725f696e666f0000000000000000815250601801905060405180910390206040518083600019166000191681526020018260001916600019168152602001925050506040518091039020600190046060016001028a61342190919063ffffffff16565b8380600101945050612c37565b612feb612fe68a61344c565b6140a7565b9750846004028851141515612ffc57fe5b6130076000806135b9565b985061305760405180807f746f6b656e5f72657365727665645f646573745f6c69737400000000000000008152506018019050604051809103902060006001028b61355f9092919063ffffffff16565b600093505b8484101561327557876002600486020181518110151561307857fe5b906020019060200201519150876003600486020181518110151561309857fe5b90602001906020020151600201905080600a0a9050808288028115156130ba57fe5b0491508188600160048702018151811015156130d257fe5b906020019060200201518301101515156130eb57600080fd5b87600160048602018151811015156130ff57fe5b9060200190602002015182019150858287011015151561311e57600080fd5b8186019550876004850281518110151561313457fe5b90602001906020020151886004860281518110151561314f57fe5b9060200190602002015183011015151561316857600080fd5b876004850281518110151561317957fe5b9060200190602002015182019150613268838581518110151561319857fe5b90602001906020020151604051808273ffffffffffffffffffffffffffffffffffffffff1673ffffffffffffffffffffffffffffffffffffffff166c01000000000000000000000000028152601401915050604051809103902060405180807f746f6b656e5f62616c616e636573000000000000000000000000000000000000815250600e01905060405180910390206040518083600019166000191681526020018260001916600019168152602001925050506040518091039020836001028b61355f9092919063ffffffff16565b838060010194505061305c565b6132c260405180807f746f6b656e5f746f74616c5f737570706c79000000000000000000000000000081525060120190506040518091039020876001028b61355f9092919063ffffffff16565b61330f60405180807f746f6b656e735f6172655f756e6c6f636b65640000000000000000000000000081525060130190506040518091039020600180028b61355f9092919063ffffffff16565b61331889613596565b9b505b5050505050505050505050919050565b8060005260206000fd5b600080600060608451141515613373576133727f556e6b6e6f776e457865637574696f6e436f6e746578740000000000000000006000191661332b565b5b836020015192508360400151915083606001519050600073ffffffffffffffffffffffffffffffffffffffff168273ffffffffffffffffffffffffffffffffffffffff1614806133ca575060006001028360001916145b156133fd576133fc7f556e6b6e6f776e457865637574696f6e436f6e746578740000000000000000006000191661332b565b5b9193909250565b600060405190506004815281816020015280604001604052919050565b815160200181818401528083528083602001016040511015613447578083602c01016040525b505050565b6060600060848351101561345f57600080fd5b600080845185602001335afa9050600081111561349357825160203d03111561348757600080fd5b60203d036020843e8291505b8015156134c8576134c77f53746f72616765526561644661696c65640000000000000000000000000000006000191661332b565b5b50919050565b6040835281836020015280836040015259604052505050565b600482528082602001525050565b6000806044835114151561350857600080fd5b602083845185602001335afa9050600081111561352457825191505b801515613559576135587f53746f72616765526561644661696c65640000000000000000000000000000006000191661332b565b5b50919050565b8251602001828185015280602001905081818501528084528084602001016040511015613590578084604001016040525b50505050565b60606000602083510611156135aa57600080fd5b60208251048252819050919050565b60006040519050604081528281602001528181604001528060600160405292915050565b60006060600080600080606060008061362a60405180807f726561644d756c746928627974657333322c627974657333325b5d2900000000815250601c0190506040518091039020613404565b985061363f8a8a61342190919063ffffffff16565b61365660406001028a61342190919063ffffffff16565b61366d60036001028a61342190919063ffffffff16565b6136b560405180807f63726f776473616c655f746f6b656e735f736f6c640000000000000000000000815250601501905060405180910390208a61342190919063ffffffff16565b6136fd60405180807f746f6b656e5f746f74616c5f737570706c790000000000000000000000000000815250601201905060405180910390208a61342190919063ffffffff16565b61374560405180807f746f6b656e5f72657365727665645f646573745f6c6973740000000000000000815250601801905060405180910390208a61342190919063ffffffff16565b6137566137518a61344c565b6140a7565b97506003885114151561376557fe5b87600081518110151561377457fe5b90602001906020020151965087600181518110151561378f57fe5b9060200190602002015195508760028151811015156137aa57fe5b9060200190602002015194506000851415613821576137ca6000806135b9565b985061381960405180807f746f6b656e735f6172655f756e6c6f636b65640000000000000000000000000081525060130190506040518091039020600180028b61355f9092919063ffffffff16565b88985061409a565b61386960405180807f726561644d756c746928627974657333322c627974657333325b5d2900000000815250601c01905060405180910390208a6134e790919063ffffffff16565b61387c8a8a61342190919063ffffffff16565b61389360406001028a61342190919063ffffffff16565b6138a9856001028a61342190919063ffffffff16565b600093505b8484101561391a5761390d60405180807f746f6b656e5f72657365727665645f646573745f6c6973740000000000000000815250601801905060405180910390206001900485602002602001016001028a61342190919063ffffffff16565b83806001019450506138ae565b61392b6139268a61344c565b6140b1565b925084835114151561393957fe5b61397760405180807f726561644d756c746928627974657333322c627974657333325b5d2900000000815250601c0190506040518091039020613404565b985061398c8a8a61342190919063ffffffff16565b6139a360406001028a61342190919063ffffffff16565b6139bc856004026001028a61342190919063ffffffff16565b600093505b84841015613d6457613aa583858151811015156139da57fe5b90602001906020020151604051808273ffffffffffffffffffffffffffffffffffffffff1673ffffffffffffffffffffffffffffffffffffffff166c01000000000000000000000000028152601401915050604051809103902060405180807f746f6b656e5f62616c616e636573000000000000000000000000000000000000815250600e019050604051809103902060405180836000191660001916815260200182600019166000191681526020019250505060405180910390208a61342190919063ffffffff16565b613b8b8385815181101515613ab657fe5b90602001906020020151604051808273ffffffffffffffffffffffffffffffffffffffff1673ffffffffffffffffffffffffffffffffffffffff166c01000000000000000000000000028152601401915050604051809103902060405180807f746f6b656e5f72657365727665645f616464725f696e666f0000000000000000815250601801905060405180910390206040518083600019166000191681526020018260001916600019168152602001925050506040518091039020600190046020016001028a61342190919063ffffffff16565b613c718385815181101515613b9c57fe5b90602001906020020151604051808273ffffffffffffffffffffffffffffffffffffffff1673ffffffffffffffffffffffffffffffffffffffff166c01000000000000000000000000028152601401915050604051809103902060405180807f746f6b656e5f72657365727665645f616464725f696e666f0000000000000000815250601801905060405180910390206040518083600019166000191681526020018260001916600019168152602001925050506040518091039020600190046040016001028a61342190919063ffffffff16565b613d578385815181101515613c8257fe5b90602001906020020151604051808273ffffffffffffffffffffffffffffffffffffffff1673ffffffffffffffffffffffffffffffffffffffff166c01000000000000000000000000028152601401915050604051809103902060405180807f746f6b656e5f72657365727665645f616464725f696e666f0000000000000000815250601801905060405180910390206040518083600019166000191681526020018260001916600019168152602001925050506040518091039020600190046060016001028a61342190919063ffffffff16565b83806001019450506139c1565b613d75613d708a61344c565b6140a7565b9750846004028851141515613d8657fe5b613d916000806135b9565b9850613de160405180807f746f6b656e5f72657365727665645f646573745f6c69737400000000000000008152506018019050604051809103902060006001028b61355f9092919063ffffffff16565b600093505b84841015613fff578760026004860201815181101515613e0257fe5b9060200190602002015191508760036004860201815181101515613e2257fe5b90602001906020020151600201905080600a0a905080828802811515613e4457fe5b049150818860016004870201815181101515613e5c57fe5b90602001906020020151830110151515613e7557600080fd5b8760016004860201815181101515613e8957fe5b90602001906020020151820191508582870110151515613ea857600080fd5b81860195508760048502815181101515613ebe57fe5b906020019060200201518860048602815181101515613ed957fe5b90602001906020020151830110151515613ef257600080fd5b8760048502815181101515613f0357fe5b9060200190602002015182019150613ff28385815181101515613f2257fe5b90602001906020020151604051808273ffffffffffffffffffffffffffffffffffffffff1673ffffffffffffffffffffffffffffffffffffffff166c01000000000000000000000000028152601401915050604051809103902060405180807f746f6b656e5f62616c616e636573000000000000000000000000000000000000815250600e01905060405180910390206040518083600019166000191681526020018260001916600019168152602001925050506040518091039020836001028b61355f9092919063ffffffff16565b8380600101945050613de6565b61404c60405180807f746f6b656e5f746f74616c5f737570706c79000000000000000000000000000081525060120190506040518091039020876001028b61355f9092919063ffffffff16565b61409960405180807f746f6b656e735f6172655f756e6c6f636b65640000000000000000000000000081525060130190506040518091039020600180028b61355f9092919063ffffffff16565b5b5050505050505050919050565b6060819050919050565b60608190509190505600a165627a7a72305820e58b90f87eada9a72d7db5a2e8bbe265ab927f036c4e7f8da4f8af5e57fefc040029",
  "source": "pragma solidity ^0.4.23;\n\nimport \"../lib/MemoryBuffers.sol\";\nimport \"../lib/ArrayUtils.sol\";\n \nlibrary TokenConsole {\n\n  using MemoryBuffers for uint;\n  using ArrayUtils for bytes32[];\n  using Exceptions for bytes32;\n\n  /// CROWDSALE STORAGE ///\n\n  // Storage location of crowdsale admin address\n  bytes32 internal constant ADMIN = keccak256(\"admin\");\n\n  // Whether the crowdsale and token are initialized, and the sale is ready to run\n  bytes32 internal constant CROWDSALE_IS_INIT = keccak256(\"crowdsale_is_init\");\n\n  // Whether or not the crowdsale is post-purchase\n  bytes32 internal constant CROWDSALE_IS_FINALIZED = keccak256(\"crowdsale_is_finalized\");\n\n  // Storage location of the amount of tokens sold in the crowdsale so far. Does not include reserved tokens\n  bytes32 internal constant CROWDSALE_TOKENS_SOLD = keccak256(\"crowdsale_tokens_sold\");\n\n  // Storage location of amount of wei raised during the crowdsale, total\n  bytes32 internal constant WEI_RAISED = keccak256(\"crowdsale_wei_raised\");\n\n  /// TOKEN STORAGE ///\n\n  // Storage location for token totalSupply\n  bytes32 internal constant TOKEN_TOTAL_SUPPLY = keccak256(\"token_total_supply\");\n\n  // Storage seed for user balances mapping\n  bytes32 internal constant TOKEN_BALANCES = keccak256(\"token_balances\");\n\n  // Storage seed for token 'transfer agent' status for any address\n  // Transfer agents can transfer tokens, even if the crowdsale has not yet been finalized\n  bytes32 internal constant TOKEN_TRANSFER_AGENTS = keccak256(\"token_transfer_agents\");\n\n  // Whether or not the token is unlocked for transfers\n  bytes32 internal constant TOKENS_ARE_UNLOCKED = keccak256(\"tokens_are_unlocked\");\n\n  /// Storage location for an array of addresses with some form of reserved tokens\n  bytes32 internal constant TOKEN_RESERVED_DESTINATIONS = keccak256(\"token_reserved_dest_list\");\n\n  // Storage seed for reserved token information for a given address\n  // Maps an address for which tokens are reserved to a struct:\n  // ReservedInfo { uint destination_list_index; uint num_tokens; uint num_percent; uint percent_decimals; }\n  // destination_list_index is the address's index in TOKEN_RESERVED_DESTINATIONS, plus 1. 0 means the address is not in the list\n  bytes32 internal constant TOKEN_RESERVED_ADDR_INFO = keccak256(\"token_reserved_addr_info\");\n\n  /// FUNCTION SELECTORS ///\n\n  // Function selector for storage \"read\"\n  // read(bytes32 _exec_id, bytes32 _location) view returns (bytes32 data_read);\n  bytes4 internal constant RD_SING = bytes4(keccak256(\"read(bytes32,bytes32)\"));\n\n  // Function selector for storage 'readMulti'\n  // readMulti(bytes32 exec_id, bytes32[] locations)\n  bytes4 internal constant RD_MULTI = bytes4(keccak256(\"readMulti(bytes32,bytes32[])\"));\n\n  /*\n  Allows the admin to set an address's transfer agent status - transfer agents can transfer tokens prior to the end of the crowdsale\n\n  @param _agent: The address whose transfer agent status will be updated\n  @param _is_transfer_agent: If true, address will be set as a transfer agent\n  @param _context: The execution context for this application - a 96-byte array containing (in order):\n    1. Application execution id\n    2. Original script sender (address, padded to 32 bytes)\n    3. Wei amount sent with transaction to storage\n  @return store_data: A formatted storage request - first 64 bytes designate a forwarding address (and amount) for any wei sent\n  */\n  function setTransferAgentStatus(address _agent, bool _is_transfer_agent, bytes memory _context) public view returns (bytes32[] memory store_data) {\n    // Ensure valid input\n    if (_agent == address(0))\n      bytes32(\"InvalidTransferAgent\").trigger();\n\n    // Parse context array and get sender address and execution id\n    address sender;\n    bytes32 exec_id;\n    (exec_id, sender, ) = parse(_context);\n\n    // Create 'read' calldata buffer in memory\n    uint ptr = MemoryBuffers.cdBuff(RD_SING);\n    // Place exec id and admin storage address location in memory\n    ptr.cdPush(exec_id);\n    ptr.cdPush(ADMIN);\n\n    // Read from storage and store return in buffer -\n    // Check that sender is equal to the returned admin address\n    if (bytes32(sender) != ptr.readSingle())\n      bytes32(\"SenderIsNotAdmin\").trigger();\n\n    // Sender is admin address - create storage buffer (overwrite previous read buffer), and set return values -\n    ptr.stOverwrite(0, 0);\n    // Push address transfer agent status storage location in storage buffer, followed by the passed-in status\n    ptr.stPush(keccak256(keccak256(_agent), TOKEN_TRANSFER_AGENTS), _is_transfer_agent ? bytes32(1) : bytes32(0));\n\n    // Get bytes32[] representation of storage buffer\n    store_data = ptr.getBuffer();\n  }\n\n  /*\n  Allows the admin to set multiple reserved token destinations for a crowdsale, which will be awarded at crowdsale finalization\n  Each array index corresponds to the same indices in the other arrays\n  If an address is repeated in _destinations, it will be ignored\n\n  @param _destinations: An array of addresses for which tokens will be reserved\n  @param _num_tokens: An array of token amounts to reserve for each address\n  @param _num_percents: An array of percentages to reserve for each address. Percents are calculated as percent of tokens existing at end of crowdsale\n  @param _percent_decimals: An array of decimal amounts coresponding to each percentage - used for precision\n  @param _context: The execution context for this application - a 96-byte array containing (in order):\n    1. Application execution id\n    2. Original script sender (address, padded to 32 bytes)\n    3. Wei amount sent with transaction to storage\n  @return store_data: A formatted storage request - first 64 bytes designate a forwarding address (and amount) for any wei sents\n  */\n  function updateMultipleReservedTokens(\n    address[] memory _destinations,\n    uint[] memory _num_tokens,\n    uint[] memory _num_percents,\n    uint[] memory _percent_decimals,\n    bytes memory _context\n  ) public view returns (bytes32[] memory store_data) {\n    // Ensure valid input\n    if (\n      _destinations.length != _num_tokens.length\n      || _num_tokens.length != _num_percents.length\n      || _num_percents.length != _percent_decimals.length\n      || _destinations.length == 0\n    ) bytes32(\"InvalidInputArray\").trigger();\n\n    // Parse context array and get sender address and execution id\n    address sender;\n    bytes32 exec_id;\n    (exec_id, sender, ) = parse(_context);\n\n    // Create 'readMulti' calldata buffer in memory\n    uint ptr = MemoryBuffers.cdBuff(RD_MULTI);\n    // Place exec id, data read offset, and read size in buffer\n    ptr.cdPush(exec_id);\n    ptr.cdPush(0x40);\n    // Reading data for all input destinations, as well as crowdsale destinations list length, crowdsale admin address permission, and crowdsale initialization status locations\n    ptr.cdPush(bytes32(3 + _destinations.length));\n    // Push crowdsale admin address permission location to buffer\n    ptr.cdPush(ADMIN);\n    // Push crowdsale initialization status locaiton to buffer\n    ptr.cdPush(CROWDSALE_IS_INIT);\n    // Add crowdsale destinations list length location to buffer\n    ptr.cdPush(TOKEN_RESERVED_DESTINATIONS);\n    // Loop over destinations, calculate their reserved token data storage location, and add to buffer\n    for (uint i = 0; i < _destinations.length ; i++) {\n      // Ensure no invalid submitted addresses\n      if (_destinations[i] == address(0)) bytes32(\"InvalidDestination\").trigger();\n      // Destination list index for all addresses is the first slot in the reserved address struct - no need to add an offset\n      ptr.cdPush(keccak256(keccak256(_destinations[i]), TOKEN_RESERVED_ADDR_INFO));\n    }\n    // Read from storage, and store returned values in buffer\n    bytes32[] memory read_values = ptr.readMulti();\n    // Ensure correct read length -\n    assert(read_values.length == 3 + _destinations.length);\n\n    // Ensure sender is admin address, and crowdsale has not been initialized\n    if (read_values[0] != bytes32(sender) || read_values[1] != 0)\n      bytes32(\"NotAdminOrSaleIsInit\").trigger();\n\n    // Create buffer for store_data return value\n    ptr = MemoryBuffers.stBuff(0, 0);\n\n    // Loop over read_values and input arrays - for each address which is unique within the passed-in destinations list,\n    // place its reservation information in the storage buffer. Ignore duplicates in passed-in array.\n    // For every address which is not a local duplicate, and also does not exist yet in the crowdsale storage reserved destination list,\n    // push it to the end of the list and increment list length (in storage buffer)\n    // Addresses with nonzero values in read_values are already a 'reserved token destination' in storage\n    // First 3 indices in read_values are admin address, crowdsale init status, and crowdsale reserved destinations list length - begin\n    // reading destinations address indices from read_values[3]\n\n    for (i = 3; i < read_values.length; i++) {\n      // If value is 0, address has not already been added to the crowdsale destinations list in storage\n      address to_add = _destinations[i - 3];\n      if (read_values[i] == 0) {\n        // Now, check the passed-in _destinations list to see if this address is listed multiple times in the input, as we only want to store information on unique addresses\n        for (uint j = _destinations.length - 1; j > i - 3; j--) {\n          // address is not unique locally - found the same address in _destinations\n          if (_destinations[j] == to_add) {\n            to_add = address(0);\n            break;\n          }\n        }\n\n        // If is_unique is zero, this address is not unique within the passed-in list - skip any additions to storage buffer\n        if (to_add == address(0))\n          continue;\n\n        // Increment length\n        read_values[2] = bytes32(uint(read_values[2]) + 1);\n        // Ensure reserved destination amount does not exceed 20\n        require(uint(read_values[2]) <= 20);\n        // Get storage position (end of TOKEN_RESERVED_DESTINATIONS list), and push to buffer\n        ptr.stPush(\n          bytes32(32 * uint(read_values[2]) + uint(TOKEN_RESERVED_DESTINATIONS)),\n          bytes32(to_add)\n        );\n        // Store reservation information in struct at TOKEN_RESERVED_ADDR_INFO\n        ptr.stPush(keccak256(keccak256(to_add), TOKEN_RESERVED_ADDR_INFO), read_values[2]);\n      }\n\n      // Push reservation information to storage request buffer\n      ptr.stPush(\n        bytes32(32 + uint(keccak256(keccak256(to_add), TOKEN_RESERVED_ADDR_INFO))),\n        bytes32(_num_tokens[i - 3])\n      );\n      ptr.stPush(\n        bytes32(64 + uint(keccak256(keccak256(to_add), TOKEN_RESERVED_ADDR_INFO))),\n        bytes32(_num_percents[i - 3])\n      );\n      ptr.stPush(\n        bytes32(96 + uint(keccak256(keccak256(to_add), TOKEN_RESERVED_ADDR_INFO))),\n        bytes32(_percent_decimals[i - 3])\n      );\n    }\n    // Finally, push new array length to storage buffer\n    ptr.stPush(TOKEN_RESERVED_DESTINATIONS, read_values[2]);\n\n    // Get bytes32[] representation of storage buffer\n    store_data = ptr.getBuffer();\n  }\n\n  /*\n  Allows the admin to remove reserved tokens for a destination, prior to crowdsale initialization\n\n  @param _destination: The address whos reserved listing will be removed\n  @param _context: The execution context for this application - a 96-byte array containing (in order):\n    1. Application execution id\n    2. Original script sender (address, padded to 32 bytes)\n    3. Wei amount sent with transaction to storage\n  @return store_data: A formatted storage request - first 64 bytes designate a forwarding address (and amount) for any wei sents\n  */\n  function removeReservedTokens(address _destination, bytes memory _context) public view returns (bytes32[] memory store_data) {\n    // Ensure valid input\n    if (_destination == address(0))\n      bytes32(\"InvalidDestination\").trigger();\n\n    // Parse context array and get sender address and execution id\n    address sender;\n    bytes32 exec_id;\n    (exec_id, sender, ) = parse(_context);\n\n    // Create 'readMulti' calldata buffer in memory\n    uint ptr = MemoryBuffers.cdBuff(RD_MULTI);\n    // Place exec id, data read offset, and read size in buffer\n    ptr.cdPush(exec_id);\n    ptr.cdPush(0x40);\n    ptr.cdPush(bytes32(4));\n    // Place admin address, crowdsale initialization status, reserved token list length, and _destination list index storage locations in callata\n    ptr.cdPush(ADMIN);\n    ptr.cdPush(CROWDSALE_IS_INIT);\n    ptr.cdPush(TOKEN_RESERVED_DESTINATIONS);\n    ptr.cdPush(keccak256(keccak256(_destination), TOKEN_RESERVED_ADDR_INFO));\n    // Read from storage, and store returned values in buffer\n    bytes32[] memory read_values = ptr.readMulti();\n    // Ensure the length is 4\n    assert(read_values.length == 4);\n\n    // Ensure sender is admin address, and crowdsale has not been initialized\n    if (read_values[0] != bytes32(sender) || read_values[1] != 0)\n      bytes32(\"NotAdminOrSaleIsInit\").trigger();\n\n    // Get reservation list length\n    uint reservation_len = uint(read_values[2]);\n    // Get index of passed-in destination. If zero, sender is not in reserved list - revert\n    uint to_remove = uint(read_values[3]);\n    // Ensure that to_remove is less than or equal to reservation list length (stored indices are offset by 1)\n    assert(to_remove <= reservation_len && to_remove != 0);\n\n    // If to_remove is the final index in the list, decrement the length and remove their reserved token information struct\n    if (to_remove == reservation_len) {\n      // Overwrite previous buffer, and create storage return buffer\n      ptr.stOverwrite(0, 0);\n\n    } else {\n      // to_remove is not the final index in the list - read the address stored at the final index in the list -\n\n      // Overwrite previous 'readMulti' calldata buffer with a 'read' buffer\n      ptr.cdOverwrite(RD_SING);\n      // Push exec id to buffer\n      ptr.cdPush(exec_id);\n      // Push final index of reserved list location to calldata buffer\n      ptr.cdPush(bytes32(32 * reservation_len + uint(TOKEN_RESERVED_DESTINATIONS)));\n      // Execute read from storage, and store return in buffer\n      address last_index = address(ptr.readSingle());\n\n      // Overwrite buffer and create storage return buffer\n      ptr.stOverwrite(0, 0);\n\n      // Push updated index (to_remove) for the address that was the final index in the destination list\n      ptr.stPush(keccak256(keccak256(last_index), TOKEN_RESERVED_ADDR_INFO), bytes32(to_remove));\n      // Push last index address to correct spot in TOKEN_RESERVED_DESTINATIONS list\n      ptr.stPush(bytes32((32 * to_remove) + uint(TOKEN_RESERVED_DESTINATIONS)), bytes32(last_index));\n    }\n    // Push new destinations list length to storage buffer\n    ptr.stPush(TOKEN_RESERVED_DESTINATIONS, bytes32(reservation_len - 1));\n    // Push removed address's list index location and new value (0) to storage buffer\n    ptr.stPush(keccak256(keccak256(_destination), TOKEN_RESERVED_ADDR_INFO), 0);\n\n    // Get bytes32[] representation of storage buffer\n    store_data = ptr.getBuffer();\n  }\n\n  /*\n  Allows anyone to distribute reserved tokens to their respective destinations following the finalization of the crowdsale\n  Providing an amount of tokens to distribute allows for batched distribution - given a long list, it may be costly to send the entire list at once\n  Once tokens for an address are distributed, the list's length is decremented\n\n  @param _amt: The number of indices in the reserved tokens list to distribute (allows for batching)\n  @param _context: The execution context for this application - a 96-byte array containing (in order):\n    1. Application execution id\n    2. Original script sender (address, padded to 32 bytes)\n    3. Wei amount sent with transaction to storage\n  @return store_data: A formatted storage request - first 64 bytes designate a forwarding address (and amount) for any wei sents\n  */\n  function distributeReservedTokens(uint _amt, bytes memory _context) public view returns (bytes32[] memory store_data) {\n    // Ensure valid input\n    if (_amt == 0)\n      bytes32(\"InvalidAmt\").trigger();\n\n    // Parse context array and get sender address and execution id\n    address sender;\n    bytes32 exec_id;\n    (exec_id, sender, ) = parse(_context);\n\n    // Create 'readMulti' calldata buffer in memory\n    uint ptr = MemoryBuffers.cdBuff(RD_MULTI);\n    // Place exec id, data read offset, and read size in buffer\n    ptr.cdPush(exec_id);\n    ptr.cdPush(0x40);\n    ptr.cdPush(bytes32(4));\n    // Place crowdsale finalization status, total tokens sold, total token supply, and reserved destination length storage locations to calldata\n    ptr.cdPush(CROWDSALE_IS_FINALIZED);\n    ptr.cdPush(CROWDSALE_TOKENS_SOLD);\n    ptr.cdPush(TOKEN_TOTAL_SUPPLY);\n    ptr.cdPush(TOKEN_RESERVED_DESTINATIONS);\n    // Read from storage, and store returned values in buffer\n    bytes32[] memory initial_read_values = ptr.readMulti();\n    // Ensure the length is 4\n    assert(initial_read_values.length == 4);\n\n    // If the crowdsale is not finalized, revert\n    if (initial_read_values[0] == 0)\n      bytes32(\"CrowdsaleNotFinalized\").trigger();\n\n    // Get total tokens sold, total token supply, and reserved destinations list length\n    uint total_sold = uint(initial_read_values[1]);\n    uint total_supply = uint(initial_read_values[2]);\n    uint num_destinations = uint(initial_read_values[3]);\n\n    // If _amt is greater than the reserved destinations list length, set amt equal to the list length\n    if (_amt > num_destinations)\n      _amt = num_destinations;\n\n    // Overwrite calldata pointer to create new 'readMulti' request\n    ptr.cdOverwrite(RD_MULTI);\n    // Place exec id, data read offset, and read size in buffer\n    ptr.cdPush(exec_id);\n    ptr.cdPush(0x40);\n    ptr.cdPush(bytes32(_amt));\n    // Get the locations of all destinations to be paid out, starting with the last destination and working backward (this allows us to simply decrement the length, instead of swapping entries)\n    for (uint i = 0; i < _amt; i++) {\n      // Get end of list (32 * num_destinations) and subtract multiples of i to get each consecutive index\n      ptr.cdPush(bytes32(32 * (num_destinations - i) + uint(TOKEN_RESERVED_DESTINATIONS)));\n    }\n    // Read from storage, and store returned values in buffer\n    initial_read_values = ptr.readMulti();\n    // Ensure valid return length -\n    assert(initial_read_values.length == _amt);\n\n    // Finally - for each returned address, we want to read the reservation information for that address as well as that address's current token balance -\n\n    // Create a new 'readMulti' buffer - we don't want to overwrite addresses\n    ptr = MemoryBuffers.cdBuff(RD_MULTI);\n    // Push exec id, data read offset, and read size to buffer\n    ptr.cdPush(exec_id);\n    ptr.cdPush(0x40);\n    ptr.cdPush(bytes32(4 * _amt));\n    // For each address returned, place the locations of their balance, reserved tokens, reserved percents, and percent's precision in 'readMulti' buffer\n    for (i = 0; i < _amt; i++) {\n      // Destination balance location\n      ptr.cdPush(keccak256(keccak256(initial_read_values[i]), TOKEN_BALANCES));\n      // Number of tokens reserved\n      ptr.cdPush(\n        bytes32(\n          32 + uint(keccak256(keccak256(address(initial_read_values[i])), TOKEN_RESERVED_ADDR_INFO))\n        )\n      );\n      // Number of percent reserved - location is 32 bytes after number of tokens reserved\n      ptr.cdPush(\n        bytes32(\n          64 + uint(keccak256(keccak256(address(initial_read_values[i])), TOKEN_RESERVED_ADDR_INFO))\n        )\n      );\n      // Precision of percent - location is 32 bytes after number of percentage points reserved\n      ptr.cdPush(\n        bytes32(\n          96 + uint(keccak256(keccak256(address(initial_read_values[i])), TOKEN_RESERVED_ADDR_INFO))\n        )\n      );\n    }\n    // Read from storage, and store return in buffer\n    uint[] memory read_reserved_info = ptr.readMulti().toUintArr();\n    // Ensure valid return length -\n    assert(read_reserved_info.length == 4 * _amt);\n\n    // Create storage buffer in free memory, to set up return value\n    ptr = MemoryBuffers.stBuff(0, 0);\n    // Push new list length to storage buffer\n    ptr.stPush(TOKEN_RESERVED_DESTINATIONS, bytes32(num_destinations - _amt));\n    // For each address, get their new balance and add to storage buffer\n    for (i = 0; i < _amt; i++) {\n      // Get percent reserved and precision\n      uint to_add = read_reserved_info[(i * 4) + 2];\n      // Two points of precision are added to ensure at least a percent out of 100\n      uint precision = 2 + read_reserved_info[(i * 4) + 3];\n      // Get percent divisor\n      precision = 10 ** precision;\n\n      // Get number of tokens to add from total_sold and precent reserved\n      to_add = total_sold * to_add / precision;\n\n      // Add number of tokens reserved, and check for overflow\n      // Additionally, check that the added amount does not overflow total supply\n      require(to_add + read_reserved_info[(i * 4) + 1] >= to_add);\n      to_add += read_reserved_info[(i * 4) + 1];\n      require(total_supply + to_add >= total_supply);\n      // Increment total supply\n      total_supply += to_add;\n\n      // Add destination's current token balance to to_add, and check for overflow\n      require(to_add + read_reserved_info[i * 4] >= read_reserved_info[i * 4]);\n      to_add += read_reserved_info[i * 4];\n      // Add new balance and balance location to storage buffer\n      ptr.stPush(keccak256(keccak256(address(initial_read_values[i])), TOKEN_BALANCES), bytes32(to_add));\n    }\n    // Add new total supply to storage buffer\n    ptr.stPush(TOKEN_TOTAL_SUPPLY, bytes32(total_supply));\n    // Get bytes32[] representation of storage buffer\n    store_data = ptr.getBuffer();\n  }\n\n  /*\n  Allows the admin to finalize the crowdsale, distribute reserved tokens, and unlock the token for transfer\n\n  @param _context: The execution context for this application - a 96-byte array containing (in order):\n    1. Application execution id\n    2. Original script sender (address, padded to 32 bytes)\n    3. Wei amount sent with transaction to storage\n  @return store_data: A formatted storage request - first 64 bytes designate a forwarding address (and amount) for any wei sents\n  */\n  function finalizeCrowdsaleAndToken(bytes memory _context) public view returns (bytes32[] memory store_data) {\n    // Get sender and exec id for this app instance\n    address sender;\n    bytes32 exec_id;\n    (exec_id, sender, ) = parse(_context);\n\n    // Create 'readMulti' calldata buffer in memory\n    uint ptr = MemoryBuffers.cdBuff(RD_MULTI);\n    // Push exec id, data read offset, and read size to calldata buffer\n    ptr.cdPush(exec_id);\n    ptr.cdPush(0x40);\n    ptr.cdPush(bytes32(3));\n    // Push admin address, crowdsale init status, and crowdsale finalization status in calldata\n    ptr.cdPush(ADMIN);\n    ptr.cdPush(CROWDSALE_IS_INIT);\n    ptr.cdPush(CROWDSALE_IS_FINALIZED);\n    // Read from storage, and store returned data in buffer\n    bytes32[] memory read_values = ptr.readMulti();\n    // Ensure correct return length\n    assert(read_values.length == 3);\n\n    // Check that the sender is the admin address, and that the crowdsale is initialized, but not finalized\n    if (\n      read_values[0] != bytes32(sender)\n      || read_values[1] == 0                          // Crowdsale init status is false\n      || read_values[2] == bytes32(1)                 // Crowdsale finalization status is true\n    ) bytes32(\"NotAdminOrStatusInvalid\").trigger();\n\n    // Get reserved token distribution from distributeAndUnlockTokens\n    ptr = distributeAndUnlockTokens(exec_id);\n    // Push crowdsale finalization status to buffer\n    ptr.stPush(CROWDSALE_IS_FINALIZED, bytes32(1));\n\n    // Get bytes32[] storage request array from buffer\n    store_data = ptr.getBuffer();\n  }\n\n  /*\n  Returns the store_data array for reserved token distribution\n\n  @param _exec_id: The execution id associate with this crowdsale\n  @return ptr: A pointer to a storage return buffer\n  */\n  function distributeAndUnlockTokens(bytes32 _exec_id) internal view returns (uint ptr) {\n    // Create 'readMulti' calldata buffer in memory\n    ptr = MemoryBuffers.cdBuff(RD_MULTI);\n    // Place exec id, data read offset, and read size in buffer\n    ptr.cdPush(_exec_id);\n    ptr.cdPush(0x40);\n    ptr.cdPush(bytes32(3));\n    // Place total tokens sold, total token supply, and reserved destination length storage locations to calldata\n    ptr.cdPush(CROWDSALE_TOKENS_SOLD);\n    ptr.cdPush(TOKEN_TOTAL_SUPPLY);\n    ptr.cdPush(TOKEN_RESERVED_DESTINATIONS);\n    // Read from storage, and store returned values in buffer\n    uint[] memory initial_read_values = ptr.readMulti().toUintArr();\n    // Ensure the length is 4\n    assert(initial_read_values.length == 3);\n\n    // Get total tokens sold, total token supply, and reserved destinations list length\n    uint total_sold = initial_read_values[0];\n    uint total_supply = initial_read_values[1];\n    uint num_destinations = initial_read_values[2];\n\n    // If there are no reserved destinations, simply create a storage buffer to unlock token transfers -\n    if (num_destinations == 0) {\n      ptr = MemoryBuffers.stBuff(0, 0);\n      // Unlock tokens by adding token 'unlock' status to storage buffer\n      ptr.stPush(TOKENS_ARE_UNLOCKED, bytes32(1));\n      // Return pointer\n      return ptr;\n    }\n\n    // Overwrite calldata pointer to create new 'readMulti' request\n    ptr.cdOverwrite(RD_MULTI);\n    // Place exec id, data read offset, and read size in buffer\n    ptr.cdPush(_exec_id);\n    ptr.cdPush(0x40);\n    ptr.cdPush(bytes32(num_destinations));\n    // Get the locations of all destinations to be paid out\n    for (uint i = 0; i < num_destinations; i++)\n      ptr.cdPush(bytes32(32 + (32 * i) + uint(TOKEN_RESERVED_DESTINATIONS)));\n\n    // Read from storage, and store returned values in buffer\n    address[] memory reserved_addresses = ptr.readMulti().toAddressArr();\n    // Ensure valid return length -\n    assert(reserved_addresses.length == num_destinations);\n\n    // Finally - for each returned address, we want to read the reservation information for that address as well as that address's current token balance -\n\n    // Create a new 'readMulti' buffer - we don't want to overwrite addresses\n    ptr = MemoryBuffers.cdBuff(RD_MULTI);\n    // Push exec id, data read offset, and read size to buffer\n    ptr.cdPush(_exec_id);\n    ptr.cdPush(0x40);\n    ptr.cdPush(bytes32(4 * num_destinations));\n    // For each address returned, place the locations of their balance, reserved tokens, reserved percents, and percent's precision in 'readMulti' buffer\n    for (i = 0; i < num_destinations; i++) {\n      // Destination balance location\n      ptr.cdPush(keccak256(keccak256(reserved_addresses[i]), TOKEN_BALANCES));\n      // Number of tokens reserved\n      ptr.cdPush(bytes32(32 + uint(keccak256(keccak256(reserved_addresses[i]), TOKEN_RESERVED_ADDR_INFO))));\n      // Number of percent reserved - location is 32 bytes after number of tokens reserved\n      ptr.cdPush(bytes32(64 + uint(keccak256(keccak256(reserved_addresses[i]), TOKEN_RESERVED_ADDR_INFO))));\n      // Precision of percent - location is 32 bytes after number of percentage points reserved\n      ptr.cdPush(bytes32(96 + uint(keccak256(keccak256(reserved_addresses[i]), TOKEN_RESERVED_ADDR_INFO))));\n    }\n    // Read from storage, and store return in buffer\n    initial_read_values = ptr.readMulti().toUintArr();\n    // Ensure valid return length -\n    assert(initial_read_values.length == 4 * num_destinations);\n\n    // Create storage buffer in free memory, to set up return value\n    ptr = MemoryBuffers.stBuff(0, 0);\n    // Push new list length to storage buffer\n    ptr.stPush(TOKEN_RESERVED_DESTINATIONS, 0);\n    // For each address, get their new balance and add to storage buffer\n    for (i = 0; i < num_destinations; i++) {\n      // Get percent reserved and precision\n      uint to_add = initial_read_values[(i * 4) + 2];\n      // Two points of precision are added to ensure at least a percent out of 100\n      uint precision = 2 + initial_read_values[(i * 4) + 3];\n      // Get percent divisor\n      precision = 10 ** precision;\n\n      // Get number of tokens to add from total_sold and precent reserved\n      to_add = total_sold * to_add / precision;\n\n      // Add number of tokens reserved, and check for overflow\n      // Additionally, check that the added amount does not overflow total supply\n      require(to_add + initial_read_values[(i * 4) + 1] >= to_add);\n      to_add += initial_read_values[(i * 4) + 1];\n      require(total_supply + to_add >= total_supply);\n      // Increment total supply\n      total_supply += to_add;\n\n      // Add destination's current token balance to to_add, and check for overflow\n      require(to_add + initial_read_values[i * 4] >= initial_read_values[i * 4]);\n      to_add += initial_read_values[i * 4];\n      // Add new balance and balance location to storage buffer\n      ptr.stPush(keccak256(keccak256(reserved_addresses[i]), TOKEN_BALANCES), bytes32(to_add));\n    }\n    // Add new total supply to storage buffer\n    ptr.stPush(TOKEN_TOTAL_SUPPLY, bytes32(total_supply));\n    // Unlock tokens by adding token 'unlock' status to storage buffer\n    ptr.stPush(TOKENS_ARE_UNLOCKED, bytes32(1));\n  }\n\n  /*\n  If the crowdsale is finalized, allows anyone to unlock token transfers and distribute reserved tokens\n\n  @param _context: The execution context for this application - a 96-byte array containing (in order):\n    1. Application execution id\n    2. Original script sender (address, padded to 32 bytes)\n    3. Wei amount sent with transaction to storage\n  @return store_data: A formatted storage request - first 64 bytes designate a forwarding address (and amount) for any wei sents\n  */\n  function finalizeAndDistributeToken(bytes memory _context) public view returns (bytes32[] memory store_data) {\n    // Get sender and exec id for this app instance\n    address sender;\n    bytes32 exec_id;\n    (exec_id, sender, ) = parse(_context);\n\n    // Create 'readMulti' calldata buffer in memory\n    uint ptr = MemoryBuffers.cdBuff(RD_MULTI);\n    // Place exec id, data read offset, and read size in buffer\n    ptr.cdPush(exec_id);\n    ptr.cdPush(0x40);\n    ptr.cdPush(bytes32(4));\n    // Place total tokens sold, total token supply, and reserved destination length storage locations to calldata\n    ptr.cdPush(CROWDSALE_TOKENS_SOLD);\n    ptr.cdPush(TOKEN_TOTAL_SUPPLY);\n    ptr.cdPush(TOKEN_RESERVED_DESTINATIONS);\n    // Push crowdsale finalization status location to buffer\n    ptr.cdPush(CROWDSALE_IS_FINALIZED);\n    // Read from storage, and store returned values in buffer\n    uint[] memory initial_read_values = ptr.readMulti().toUintArr();\n    // Ensure the length is 4\n    assert(initial_read_values.length == 4);\n\n    // Get total tokens sold, total token supply, and reserved destinations list length\n    uint total_sold = initial_read_values[0];\n    uint total_supply = initial_read_values[1];\n    uint num_destinations = initial_read_values[2];\n\n    // If the crowdsale is not finalized, revert\n    if (initial_read_values[3] == 0)\n      bytes32(\"CrowdsaleNotFinalized\").trigger();\n\n    // If there are no reserved destinations, simply create a storage buffer to unlock token transfers -\n    if (num_destinations == 0) {\n      ptr = MemoryBuffers.stBuff(0, 0);\n      // Unlock tokens by adding token 'unlock' status to storage buffer\n      ptr.stPush(TOKENS_ARE_UNLOCKED, bytes32(1));\n      // Return storage request\n      store_data = ptr.getBuffer();\n      return store_data;\n    }\n\n    // Overwrite calldata pointer to create new 'readMulti' request\n    ptr.cdOverwrite(RD_MULTI);\n    // Place exec id, data read offset, and read size in buffer\n    ptr.cdPush(exec_id);\n    ptr.cdPush(0x40);\n    ptr.cdPush(bytes32(num_destinations));\n    // Get the locations of all destinations to be paid out\n    for (uint i = 0; i < num_destinations; i++)\n      ptr.cdPush(bytes32(32 + (32 * i) + uint(TOKEN_RESERVED_DESTINATIONS)));\n\n    // Read from storage, and store returned values in buffer\n    address[] memory reserved_addresses = ptr.readMulti().toAddressArr();\n    // Ensure valid return length -\n    assert(reserved_addresses.length == num_destinations);\n\n    // Finally - for each returned address, we want to read the reservation information for that address as well as that address's current token balance -\n\n    // Create a new 'readMulti' buffer - we don't want to overwrite addresses\n    ptr = MemoryBuffers.cdBuff(RD_MULTI);\n    // Push exec id, data read offset, and read size to buffer\n    ptr.cdPush(exec_id);\n    ptr.cdPush(0x40);\n    ptr.cdPush(bytes32(4 * num_destinations));\n    // For each address returned, place the locations of their balance, reserved tokens, reserved percents, and percent's precision in 'readMulti' buffer\n    for (i = 0; i < num_destinations; i++) {\n      // Destination balance location\n      ptr.cdPush(keccak256(keccak256(reserved_addresses[i]), TOKEN_BALANCES));\n      // Number of tokens reserved\n      ptr.cdPush(bytes32(32 + uint(keccak256(keccak256(reserved_addresses[i]), TOKEN_RESERVED_ADDR_INFO))));\n      // Number of percent reserved - location is 32 bytes after number of tokens reserved\n      ptr.cdPush(bytes32(64 + uint(keccak256(keccak256(reserved_addresses[i]), TOKEN_RESERVED_ADDR_INFO))));\n      // Precision of percent - location is 32 bytes after number of percentage points reserved\n      ptr.cdPush(bytes32(96 + uint(keccak256(keccak256(reserved_addresses[i]), TOKEN_RESERVED_ADDR_INFO))));\n    }\n    // Read from storage, and store return in buffer\n    initial_read_values = ptr.readMulti().toUintArr();\n    // Ensure valid return length -\n    assert(initial_read_values.length == 4 * num_destinations);\n\n    // Create storage buffer in free memory, to set up return value\n    ptr = MemoryBuffers.stBuff(0, 0);\n    // Push new list length to storage buffer\n    ptr.stPush(TOKEN_RESERVED_DESTINATIONS, 0);\n    // For each address, get their new balance and add to storage buffer\n    for (i = 0; i < num_destinations; i++) {\n      // Get percent reserved and precision\n      uint to_add = initial_read_values[(i * 4) + 2];\n      // Two points of precision are added to ensure at least a percent out of 100\n      uint precision = 2 + initial_read_values[(i * 4) + 3];\n      // Get percent divisor\n      precision = 10 ** precision;\n\n      // Get number of tokens to add from total_sold and precent reserved\n      to_add = total_sold * to_add / precision;\n\n      // Add number of tokens reserved, and check for overflow\n      // Additionally, check that the added amount does not overflow total supply\n      require(to_add + initial_read_values[(i * 4) + 1] >= to_add);\n      to_add += initial_read_values[(i * 4) + 1];\n      require(total_supply + to_add >= total_supply);\n      // Increment total supply\n      total_supply += to_add;\n\n      // Add destination's current token balance to to_add, and check for overflow\n      require(to_add + initial_read_values[i * 4] >= initial_read_values[i * 4]);\n      to_add += initial_read_values[i * 4];\n      // Add new balance and balance location to storage buffer\n      ptr.stPush(keccak256(keccak256(reserved_addresses[i]), TOKEN_BALANCES), bytes32(to_add));\n    }\n    // Add new total supply to storage buffer\n    ptr.stPush(TOKEN_TOTAL_SUPPLY, bytes32(total_supply));\n    // Unlock tokens by adding token 'unlock' status to storage buffer\n    ptr.stPush(TOKENS_ARE_UNLOCKED, bytes32(1));\n\n    // Get bytes32[] storage request array from buffer\n    store_data = ptr.getBuffer();\n  }\n\n  // Parses context array and returns execution id, sender address, and sent wei amount\n  function parse(bytes memory _context) internal pure returns (bytes32 exec_id, address from, uint wei_sent) {\n    if (_context.length != 96)\n      bytes32(\"UnknownExecutionContext\").trigger();\n\n    assembly {\n      exec_id := mload(add(0x20, _context))\n      from := mload(add(0x40, _context))\n      wei_sent := mload(add(0x60, _context))\n    }\n\n    // Ensure sender and exec id are valid\n    if (from == address(0) || exec_id == 0)\n      bytes32(\"UnknownExecutionContext\").trigger();\n  }\n}\n",
  "sourcePath": "/Users/viktor/Documents/POANetwork/auth-os-applications-myfork/TokenWizard/crowdsale/MintedCappedCrowdsale/contracts/token/TokenConsole.sol",
  "compiler": {
    "name": "solc",
    "version": "0.4.23+commit.124ca40d.Emscripten.clang"
  },
  "schemaVersion": "2.0.0",
  "updatedAt": "2018-05-03T09:24:31.257Z"
}